:100000000C942A000C9447000C9447000C94470071
:100010000C9447000C9447000C9447000C94470044
:100020000C9447000C9447000C9447000C94470034
:100030000C9447000C9447000C9447000C94470024
:100040000C9447000C9447000C9447000C94470014
:100050000C94470011241FBECFE5D8E0DEBFCDBF12
:1000600011E0A0E6B0E0E6E2FAE202C005900D92EF
:10007000AA38B107D9F711E0AAE8B1E001C01D9292
:10008000AE39B107E1F70E94AC0C0C9411150C9439
:100090000000EF92FF920F931F937B018C0120E0F1
:1000A00030E040E05FE40E94F50388238CF0C80153
:1000B000B70120E030E040E05FE40E94C1010E940F
:1000C00055049B01AC01205030404040504806C0D0
:1000D000C801B7010E9455049B01AC01B901CA01D6
:1000E0001F910F91FF90EF900895A0E0B0E0EBE733
:1000F000F0E00C94DA14DC012B01FA019C919230AF
:1001000008F439C1EB018881823008F433C194309E
:1001100069F4843009F02FC111969C91119789815F
:10012000981709F428C1A6E6B0E025C1843009F487
:1001300021C18230A9F4923009F01DC19A01AD01AC
:1001400088E0EA010990AE01E90109929E0181501F
:10015000C1F7E201898111969C918923818308C1AD
:10016000923009F407C112962D903C901397EB0141
:100170008A819B811496AD90BD90CD90DC901797AD
:10018000EC80FD800E811F819101281B390BB90184
:1001900037FF04C066277727621B730B6032710537
:1001A0000CF061C0121613066CF537014801062EDB
:1001B00004C096948794779467940A94D2F721E0C8
:1001C00030E040E050E004C0220F331F441F551FB1
:1001D0006A95D2F721503040404050402E213F21B7
:1001E00040235123211531054105510521F021E01E
:1001F00030E040E050E079018A01E628F72808293C
:1002000019293CC0232BD1F1260E371E350146019A
:10021000062E04C096948794779467940A94D2F734
:1002200021E030E040E050E004C0220F331F441FC3
:10023000551F6A95D2F721503040404050402A2146
:100240003B214C215D21211531054105510521F04E
:1002500021E030E040E050E059016A01A628B728CB
:10026000C828D9280BC0821593052CF01C01AA249C
:10027000BB24650103C0EE24FF24870111969C91E5
:10028000D20111968C91981709F445C0992339F041
:10029000A80197012A193B094C095D0906C0A6016E
:1002A00095012E193F09400B510B57FD08C01182D3
:1002B0003382228224833583468357831DC081E0A5
:1002C00081833382228288279927DC01821B930B4A
:1002D000A40BB50B84839583A683B7830DC0220F2F
:1002E000331F441F551F24833583468357838281E0
:1002F000938101979383828324813581468157813D
:10030000DA01C9010197A109B1098F5F9F4FAF4F72
:10031000BF4328F30BC0918333822282EA0CFB1C7B
:100320000C1D1D1DE482F5820683178383E0808304
:10033000248135814681578157FF1AC0C901AA27F8
:1003400097FDA095BA2F81709070A070B0705695EF
:10035000479537952795822B932BA42BB52B848318
:100360009583A683B7838281938101969383828349
:10037000DF0101C0D201CD01CDB7DEB7E2E10C94BF
:10038000F614A0E2B0E0E7ECF1E00C94E614698327
:100390007A838B839C832D833E834F835887E9E048
:1003A000EE2EF12CEC0EFD1ECE010196B7010E943F
:1003B00046068E010F5E1F4FCE010596B8010E94C2
:1003C00046068A8991E089278A8BC701B801AE0168
:1003D000475E5F4F0E9475000E947105A096E6E09F
:1003E0000C940215A0E2B0E0E8EFF1E00C94E61402
:1003F00069837A838B839C832D833E834F835887C5
:10040000F9E0EF2EF12CEC0EFD1ECE010196B701A6
:100410000E9446068E010F5E1F4FCE010596B80161
:100420000E944606C701B801AE01475E5F4F0E94B9
:1004300075000E947105A096E6E00C940215A0E2FA
:10044000B0E0E5E2F2E00C94DA1469837A838B83FE
:100450009C832D833E834F835887CE010196BE0136
:10046000675F7F4F0E944606CE010596BE016F5E14
:100470007F4F0E9446069985923088F089898230A4
:10048000C8F0943019F4823051F404C0843029F457
:10049000923081F486E690E0C6C0923049F420E0C4
:1004A0009A858A89981321E02A87CE010996BBC0D4
:1004B000823049F420E09A858A89981321E02A8BBA
:1004C000CE014196B0C02D843E844F8458886D88FB
:1004D0007E888F88988CEE24FF248701AA24BB2471
:1004E000650140E050E060E070E0E0E0F0E0C10174
:1004F00081709070892BE9F0E60CF71C081D191D1E
:100500009A01AB012A0D3B1D4C1D5D1D80E090E062
:10051000A0E0B0E0E614F7040805190520F481E036
:1005200090E0A0E0B0E0BA01A901480F591F6A1F8E
:100530007B1FAA0CBB1CCC1CDD1C97FE08C081E0F5
:1005400090E0A0E0B0E0A82AB92ACA2ADB2A3196B6
:10055000E032F10549F0660C771C881C991C569412
:10056000479437942794C3CFFA85EA892B893C892D
:100570008B859C85280F391F2E5F3F4F17C0CA01FE
:1005800081709070892B61F016950795F794E79428
:1005900080E090E0A0E0B0E8E82AF92A0A2B1B2BC3
:1005A00076956795579547952F5F3F4F77FDE7CF36
:1005B0000CC0440F551F661F771F17FD4160EE0CDE
:1005C000FF1C001F111F21503040403090E05907A0
:1005D00090E0690790E4790760F32B8F3C8FDB0193
:1005E000CA018F779070A070B07080349105A1051A
:1005F000B10561F447FD0AC0E114F10401051105DC
:1006000029F0405C5F4F6F4F7F4F40781A8EFE1786
:1006100011F081E08A8F4D8F5E8F6F8F78A383E01A
:10062000898FCE0149960E947105A096E2E10C9453
:10063000F614A8E1B0E0EFE1F3E00C94E214698372
:100640007A838B839C832D833E834F835887B9E0C5
:10065000EB2EF12CEC0EFD1ECE010196B7010E948F
:1006600046068E010F5E1F4FCE010596B8010E940F
:1006700046062985223008F47EC03989323010F4CC
:10068000B8017CC08A859A8989278A87243011F02D
:10069000223031F4231709F06EC066E670E06EC0B8
:1006A000343039F41D861E861F86188A1C861B86E8
:1006B00004C0323021F484E08987B7015FC02B8504
:1006C0003C858B899C89281B390B3C872B87ED84C3
:1006D000FE840F851889AD88BE88CF88D88CEA142F
:1006E000FB040C051D0540F4EE0CFF1C001F111F40
:1006F000215030403C872B8720E030E040E050E044
:1007000080E090E0A0E0B0E460E070E0EA14FB0478
:100710000C051D0540F0282B392B4A2B5B2BEA18C2
:10072000FB080C091D09B695A79597958795EE0CC2
:10073000FF1C001F111F6F5F7F4F6F31710531F775
:10074000DA01C9018F779070A070B0708034910584
:10075000A105B10561F427FD0AC0E114F10401050A
:10076000110529F0205C3F4F4F4F5F4F20782D87B8
:100770003E874F87588BBE01675F7F4FCB010E943A
:1007800071056896EAE00C94FE14A8E1B0E0EBEC89
:10079000F3E00C94E61469837A838B839C832D8326
:1007A0003E834F83588789E0E82EF12CEC0EFD1E26
:1007B000CE010196B7010E9446068E010F5E1F4FC3
:1007C000CE010596B8010E9446068985823040F028
:1007D0008989823028F0C701B8010E94BE0601C095
:1007E0008FEF6896E6E00C940215A8E1B0E0EBEF1D
:1007F000F3E00C94E61469837A838B839C832D83C6
:100800003E834F83588789E0E82EF12CEC0EFD1EC5
:10081000CE010196B7010E9446068E010F5E1F4F62
:10082000CE010596B8010E9446068985823040F0C7
:100830008989823028F0C701B8010E94BE0601C034
:100840008FEF6896E6E00C940215A8E1B0E0EBE2C9
:10085000F4E00C94E61469837A838B839C832D8364
:100860003E834F83588789E0E82EF12CEC0EFD1E65
:10087000CE010196B7010E9446068E010F5E1F4F02
:10088000CE010596B8010E9446068985823040F067
:100890008989823028F0C701B8010E94BE0601C0D4
:1008A00081E06896E6E00C940215ACE0B0E0EBE580
:1008B000F4E00C94EA1469837A838B839C83CE01E1
:1008C0000196BE016B5F7F4F0E9446068D8182308C
:1008D00061F1823050F1843021F48E81882351F10E
:1008E0002EC02F81388537FD20C06E812F31310514
:1008F0001CF06623F9F023C08EE190E0821B930B7D
:1009000029853A854B855C8504C056954795379572
:1009100027958A95D2F76623B1F05095409530958A
:1009200021953F4F4F4F5F4F0EC020E030E040E039
:1009300050E009C02FEF3FEF4FEF5FE704C020E02A
:1009400030E040E050E8B901CA012C96E2E00C9496
:100950000615A8E0B0E0EFEAF4E00C94E2147B01A5
:100960008C01611571058105910519F482E0898377
:1009700060C083E089838EE1C82ED12CDC82CB82DB
:10098000ED82FE820F831887C801B7010E942205FD
:10099000FC013197F7FF3BC0222733272E1B3F0B6B
:1009A00057016801022E04C0D694C794B794A79447
:1009B0000A94D2F740E050E060E070E081E090E01F
:1009C000A0E0B0E004C0880F991FAA1FBB1F2A95A2
:1009D000D2F70197A109B1098E219F21A023B1234C
:1009E0000097A105B10521F041E050E060E070E022
:1009F0004A295B296C297D294D835E836F83788723
:100A00008EE190E08E1B9F0B9C838B8312C03097EE
:100A100081F00E2E04C0EE0CFF1C001F111F0A9463
:100A2000D2F7ED82FE820F831887CE1ADF0ADC82AE
:100A3000CB821A82CE0101960E9471052896EAE0C7
:100A40000C94FE14EF92FF920F931F937B018C0185
:100A500080E0E81680E0F80681E0080780E01807EB
:100A600088F48FEFE816F1040105110531F028F044
:100A700088E090E0A0E0B0E017C080E090E0A0E067
:100A8000B0E012C080E0E81680E0F80680E00807D9
:100A900081E0180728F088E190E0A0E0B0E004C011
:100AA00080E190E0A0E0B0E020E230E040E050E003
:100AB000281B390B4A0B5B0B04C016950795F7945E
:100AC000E7948A95D2F7F701E259FF4F8081281BFE
:100AD000310941095109C9011F910F91FF90EF9010
:100AE0000895DF92EF92FF920F931F93FC01E48031
:100AF000F58006811781D1808081823048F480E0C2
:100B000090E0A0E1B0E0E82AF92A0A2B1B2BA5C04F
:100B1000843009F49FC0823021F4EE24FF24870141
:100B200005C0E114F1040105110519F4E0E0F0E05D
:100B300096C0628173819FEF623879070CF05BC0C9
:100B400022E83FEF261B370B2A3131052CF020E03D
:100B500030E040E050E02AC0B801A701022E04C0F6
:100B600076956795579547950A94D2F781E090E07E
:100B7000A0E0B0E004C0880F991FAA1FBB1F2A95F0
:100B8000D2F70197A109B1098E219F21A023B1239A
:100B90000097A105B10521F081E090E0A0E0B0E070
:100BA0009A01AB01282B392B4A2B5B2BDA01C901A7
:100BB0008F779070A070B07080349105A105B10559
:100BC00039F427FF09C0205C3F4F4F4F5F4F04C0EF
:100BD000215C3F4F4F4F5F4FE0E0F0E02030A0E05E
:100BE0003A07A0E04A07A0E45A0710F0E1E0F0E07D
:100BF00079018A0127C06038710564F5FB01E1586D
:100C0000FF4FD801C7018F779070A070B07080340B
:100C10009105A105B10539F4E7FE0DC080E490E02F
:100C2000A0E0B0E004C08FE390E0A0E0B0E0E80E08
:100C3000F91E0A1F1B1F17FF05C016950795F7948D
:100C4000E794319687E016950795F794E7948A958F
:100C5000D1F705C0EE24FF248701EFEFF0E06E2FFF
:100C6000679566276795902F9F77D794DD24D79453
:100C70008E2F8695492F462B582F5D29B701CA0123
:100C80001F910F91FF90EF90DF900895FC01DB0121
:100C9000408151812281622F6F7770E0221F2227CD
:100CA000221F9381892F880F822B282F30E0991FD4
:100CB0009927991F11969C93119721153105A9F534
:100CC000411551056105710511F482E037C082E8D4
:100CD0009FEF13969C938E9312979A01AB0167E056
:100CE000220F331F441F551F6A95D1F783E08C9361
:100CF0000DC0220F331F441F551F12968D919C91DA
:100D00001397019713969C938E931297203080E04F
:100D1000380780E0480780E4580758F314962D936D
:100D20003D934D935C93179708952F3F310579F4C8
:100D3000411551056105710519F484E08C930895FE
:100D400064FF03C081E08C9312C01C9210C02F5727
:100D5000304013963C932E93129783E08C9387E058
:100D6000440F551F661F771F8A95D1F7706414963C
:100D70004D935D936D937C93179708951F93DC01BA
:100D8000FB019C91923008F447C08081823008F4C6
:100D900043C0943051F411961C91843099F58181AF
:100DA000682F70E0611B71093FC0843021F09230E0
:100DB00031F48230B9F18181882389F12DC01196F7
:100DC0001C9111978230F1F081811817D9F4129695
:100DD0002D913C911397828193818217930794F010
:100DE00028173907BCF014968D919D910D90BC91F8
:100DF000A02D2481358146815781281739074A075C
:100E00005B0718F4112341F00AC082179307A40767
:100E1000B50740F4112319F061E070E005C06FEFF1
:100E20007FEF02C060E070E0CB011F910895DF9377
:100E3000CF93CDB7DEB72F970FB6F894DEBF0FBEB6
:100E4000CDBF8F8782E060E040E00E941D0A82E013
:100E500061E040E00E941D0A81E06F850E942F0B37
:100E600082E062E041E00E941D0A80E090E0A0E0A4
:100E7000B0E48B879C87AD87BE876B857C858D852D
:100E80009E8520E030E04AEF54E40E941F02DC011E
:100E9000CB018F839887A987BA876F8178858985E9
:100EA0009A8520E030E040E85FE30E942504882333
:100EB0002CF481E090E09E838D833FC06F81788524
:100EC00089859A8520E03FEF4FE757E40E94C503EC
:100ED00018164CF56B857C858D859E8520E030E06D
:100EE00040E251E40E941F02DC01CB01BC01CD01B4
:100EF0000E944900DC01CB019E838D830FC088ECEA
:100F000090E09C838B838B819C810197F1F79C837C
:100F10008B838D819E8101979E838D838D819E81A0
:100F2000009769F714C06F81788589859A850E943A
:100F30004900DC01CB019E838D838D819E819A8344
:100F4000898389819A810197F1F79A83898382E065
:100F500062E040E00E941D0A2F960FB6F894DEBFB3
:100F60000FBECDBFCF91DF910895DF93CF93CDB763
:100F7000DEB72F970FB6F894DEBF0FBECDBF8F87B9
:100F800082E060E041E00E941D0A82E061E040E012
:100F90000E941D0A81E06F850E942F0B82E062E0B3
:100FA00041E00E941D0A80E090E0A0E0B0E48B8761
:100FB0009C87AD87BE876B857C858D859E8520E06F
:100FC00030E04AEF54E40E941F02DC01CB018F8322
:100FD0009887A987BA876F81788589859A8520E067
:100FE00030E040E85FE30E94250488232CF481E090
:100FF00090E09E838D833FC06F81788589859A8537
:1010000020E03FEF4FE757E40E94C50318164CF568
:101010006B857C858D859E8520E030E040E251E443
:101020000E941F02DC01CB01BC01CD010E944900DE
:10103000DC01CB019E838D830FC088EC90E09C8304
:101040008B838B819C810197F1F79C838B838D81AE
:101050009E8101979E838D838D819E81009769F784
:1010600014C06F81788589859A850E944900DC01CA
:10107000CB019E838D838D819E819A838983898113
:101080009A810197F1F79A83898382E062E040E0D8
:101090000E941D0A2F960FB6F894DEBF0FBECDBF7B
:1010A000CF91DF910895DF93CF9300D00F92CDB70A
:1010B000DEB79B838A8319820EC08981282F30E096
:1010C0008A819B81FC01E20FF31F80810E94B5079A
:1010D00089818F5F89838981282F30E08A819B8174
:1010E000FC01E20FF31F8081882339F70F900F90E6
:1010F0000F90CF91DF910895DF93CF93CDB7DEB7F7
:101100002E970FB6F894DEBF0FBECDBF80E090E003
:10111000A0E2B2E48B879C87AD87BE876B857C8518
:101120008D859E8520E030E04AEF54E40E941F0246
:10113000DC01CB018F839887A987BA876F81788577
:1011400089859A8520E030E040E85FE30E9425042D
:1011500088232CF481E090E09E838D833FC06F81D3
:10116000788589859A8520E03FEF4FE757E40E9414
:10117000C50318164CF56B857C858D859E8520E012
:1011800030E040E251E40E941F02DC01CB01BC01CF
:10119000CD010E944900DC01CB019E838D830FC0ED
:1011A00088EC90E09C838B838B819C810197F1F785
:1011B0009C838B838D819E8101979E838D838D81FE
:1011C0009E81009769F714C06F81788589859A851B
:1011D0000E944900DC01CB019E838D838D819E811D
:1011E0009A83898389819A810197F1F79A83898308
:1011F00088E30E9417078CE00E94170781E00E9495
:1012000017072E960FB6F894DEBF0FBECDBFCF9155
:10121000DF910895DF93CF9300D00F92CDB7DEB763
:101220008A836B838A81882319F48B81898306C022
:101230008A81813019F48B81805C8983898180580F
:101240000E9417070F900F900F90CF91DF91089594
:10125000DF93CF93CDB7DEB727970FB6F894DEBFF5
:101260000FBECDBF9C838B836D834E832F831A82E9
:101270008D81882F90E0880F991F880F991F880F04
:10128000991F8A838A81805C0E94170719820EC089
:101290008981282F30E08B819C81FC01E20FF31FB4
:1012A00080810E94B50789818F5F89838981883019
:1012B00078F38E816F810E940A098D810E94B507A3
:1012C00027960FB6F894DEBF0FBECDBFCF91DF914A
:1012D0000895DF93CF93CDB7DEB72E970FB6F8946E
:1012E000DEBF0FBECDBF6B877C878D879E871A863A
:1012F00081E090E0A0E0B0E08D839E83AF83B8876B
:101300008B859C85AD85BE8589839A83AB83BC83A1
:101310008B859C85AD85BE850097A105B105C9F477
:1013200080E30E94B50780C08A858F5F8A878981A4
:101330009A81AB81BC812AE030E040E050E0BC0102
:10134000CD010E94B814DA01C90189839A83AB8365
:10135000BC8389819A81AB81BC810097A105B105CD
:1013600019F715C08A8581508A878D819E81AF814A
:10137000B8852AE030E040E050E0BC01CD010E9499
:101380008514DC01CB018D839E83AF83B8878A856A
:10139000823040F740C08B859C85AD85BE852D8110
:1013A0003E814F815885BC01CD010E94B814DA01FD
:1013B000C90189878985805D0E94B5078985882F45
:1013C00090E0A0E0B0E02D813E814F815885BC01C6
:1013D000CD010E9485149B01AC018B859C85AD8558
:1013E000BE85821B930BA40BB50B8B879C87AD87A7
:1013F000BE878D819E81AF81B8852AE030E040E0D4
:1014000050E0BC01CD010E94B814DA01C9018D83FE
:101410009E83AF83B8878D819E81AF81B885009709
:10142000A105B10509F0B7CF2E960FB6F894DEBF2F
:101430000FBECDBFCF91DF910895DF93CF93CDB78E
:10144000DEB728970FB6F894DEBF0FBECDBF8A83F4
:101450006B834C8319828B81883008F0F4C08C81B7
:10146000813009F072C08A81282F30E038872F83BD
:101470008F8198858130910549F12F8138852230FF
:1014800031052CF48F819885009761F05BC02F8126
:1014900038852230310571F18F819885833091052F
:1014A000E9F150C0ABE3B0E0EBE3F0E08081482F1E
:1014B0008B81282F30E081E090E0022E02C0880F5F
:1014C000991F0A94E2F7842B8C93BFC0A8E3B0E085
:1014D000E8E3F0E08081482F8B81282F30E081E025
:1014E00090E0022E02C0880F991F0A94E2F7842B25
:1014F0008C93ABC0A5E3B0E0E5E3F0E08081482F3A
:101500008B81282F30E081E090E0022E02C0880F0E
:10151000991F0A94E2F7842B8C9397C0A2E3B0E062
:10152000E2E3F0E08081482F8B81282F30E081E0DA
:1015300090E0022E02C0880F991F0A94E2F7842BD4
:101540008C9383C081E0898380C08C81882309F0DB
:1015500077C08A81282F30E03E832D838D819E8144
:101560008130910559F12D813E81223031052CF4D5
:101570008D819E81009769F060C02D813E8122306F
:10158000310589F18D819E818330910509F440C038
:1015900054C0ABE3B0E0EBE3F0E08081482F8B81F7
:1015A000282F30E081E090E0022E02C0880F991FC2
:1015B0000A94E2F7809584238C9347C0A8E3B0E0B7
:1015C000E8E3F0E08081482F8B81282F30E081E034
:1015D00090E0022E02C0880F991F0A94E2F78095CE
:1015E00084238C9332C0A5E3B0E0E5E3F0E0808192
:1015F000482F8B81282F30E081E090E0022E02C03E
:10160000880F991F0A94E2F7809584238C931DC05C
:10161000A2E3B0E0E2E3F0E08081482F8B81282F45
:1016200030E081E090E0022E02C0880F991F0A94FA
:10163000E2F7809584238C9308C081E0898305C0FC
:1016400081E0898302C081E08983898128960FB671
:10165000F894DEBF0FBECDBFCF91DF910895DF9329
:10166000CF9300D000D00F92CDB7DEB78A836B83C3
:1016700019828A81282F30E03D832C838C819D81C3
:1016800081309105D1F02C813D81223031052CF43F
:101690008C819D81009761F01FC02C813D8122309B
:1016A000310581F08C819D818330910581F014C0DA
:1016B000EBE3F0E08B81808311C0E8E3F0E08B8105
:1016C00080830CC0E5E3F0E08B81808307C0E2E318
:1016D000F0E08B81808302C081E0898389810F9053
:1016E0000F900F900F900F90CF91DF910895DF939F
:1016F000CF93CDB7DEB727970FB6F894DEBF0FBEF6
:10170000CDBF8A836B835D834C8319828C819D81DD
:10171000009709F478C08B81883008F074C08A8102
:10172000282F30E03F832E834E815F814130510569
:1017300059F18E819F818230910534F42E813F8151
:101740002115310569F05CC04E815F814230510541
:1017500079F18E819F818330910509F43DC050C09D
:10176000E9E3F0E08081282F30E08B81882F90E042
:10177000A90102C0559547958A95E2F7CA01817083
:10178000EC81FD81808341C0E6E3F0E08081282F79
:1017900030E08B81882F90E0A90102C055954795D4
:1017A0008A95E2F7CA018170EC81FD8180832DC0AA
:1017B000E3E3F0E08081282F30E08B81882F90E0F8
:1017C000A90102C0559547958A95E2F7CA01817033
:1017D000EC81FD81808319C0E0E3F0E08081282F57
:1017E00030E08B81882F90E0A90102C05595479584
:1017F0008A95E2F7CA018170EC81FD81808305C082
:1018000081E0898302C081E08983898127960FB6B0
:10181000F894DEBF0FBECDBFCF91DF910895DF9367
:10182000CF9300D000D00F92CDB7DEB78FEF8B8370
:101830001A825EC08A81882F90E0FC01EE58FE4F2C
:10184000908180E0692F40E00E941D0A19823DC00E
:101850008981882F90E0FC01E259FE4F90819E0122
:101860002C5F3F4F80E0692FA9010E94770B8C818C
:10187000882341F58981482F50E08A81282F30E064
:10188000CA01880F991F880F991F820F931FFC01AF
:10189000EA58FE4F80818B830FC08981882F90E0AA
:1018A000FC01E259FE4F90819E012C5F3F4F80E08A
:1018B000692FA9010E94770B8C81882371F38B819A
:1018C0008D831CC089818F5F89838981843008F46E
:1018D000BFCF8A81882F90E0FC01EE58FE4F9081A7
:1018E00080E0692F41E00E941D0A8A818F5F8A8310
:1018F0008A81843008F49ECF8B818D838D810F90F7
:101900000F900F900F900F90CF91DF910895DF937C
:10191000CF93CDB7DEB7EAE3F0E080EF8083E7E373
:10192000F0E08FEF8083E4E3F0E087E08083E1E3A1
:10193000F0E08FEF8083EBE3F0E08FEF8083E8E36C
:10194000F0E08FEF8083E5E3F0E01082E2E3F0E087
:101950001082CF91DF910895DF93CF93CDB7DEB79B
:101960000E94870C0E947C080E940F0C882F90E038
:1019700090939B0180939A0180919A0190919B0191
:101980008F3F910589F380919A0190919B010E946C
:10199000CA0CEACFEF92FF920F931F93DF93CF937E
:1019A000CDB7DEB729970FB6F894DEBF0FBECDBF17
:1019B000898389810E94B9120E940F0C89838981D1
:1019C0008F3FD1F389810E941E130E940F0C8983DF
:1019D00089818F3FD1F389810E94341490918B01CA
:1019E00080E0692F0E940A098DE30E94B50780916B
:1019F0009501833008F0FDC480919501813009F094
:101A000043C280919801282F30E039872887488584
:101A100059854B325105C1F0888599858C329105E5
:101A20003CF4288539852A32310509F45FC0E1C4C8
:101A3000488559854D325105D9F0888599858F3271
:101A4000910509F46DC0D5C480918B018F5F80939F
:101A50008B0120918C0130918D0180918E019091AC
:101A60008F01820F931F90939D0180939C01C1C4AD
:101A700080918B018F5F80938B0120918C0130913D
:101A80008D0180918E0190918F018217930778F4D8
:101A900080918C0190918D0120918E0130918F0168
:101AA000821B930B90939D0180939C01A2C4909103
:101AB0008B0180E0692F0E940A098DE20E94B50720
:101AC00020918E0130918F0180918C0190918D0138
:101AD000A901481B590BCA0190939D0180939C0159
:101AE00080918B018F5F80938B0183C480918B01E8
:101AF0008F5F80938B0120918C0130918D018091BB
:101B00008E0190918F01AC01249FC001259F900D03
:101B1000349F900D112490939D0180939C0169C482
:101B200080918E0190918F01009781F480918B01BB
:101B3000982F9F5F80E0692F0E940A0980E690E05D
:101B40000E94530881E08093940153C480918C01DA
:101B500090918D0120918E0130918F01B9010E94E9
:101B6000A4140097B1F480918B018F5F80938B0157
:101B700080918C0190918D0120918E0130918F0187
:101B8000B9010E94A414CB0190939D0180939C0104
:101B900030C480918E0190918F018A30910508F0B8
:101BA0000EC181E08093930180918C0190918D0111
:101BB00020918E0130918F01B9010E94A414CB01B4
:101BC00090939D0180939C0180918E0190918F0153
:101BD0009F838E832E813F812530310509F477C0A4
:101BE0004E815F814630510588F48E819F8183301C
:101BF0009105E9F12E813F812430310508F04FC075
:101C00004E815F8142305105D1F0F3C38E819F81B7
:101C10008730910509F48BC02E813F812730310533
:101C200008F46DC04E815F814830510509F497C0BA
:101C30008E819F818930910509F4A9C0DAC3209172
:101C40008C0130918D0184EF91E0AC01249FC001A3
:101C5000259F900D349F900D112428EE33E0B9019B
:101C60000E94A4149093920180939101C2C3209189
:101C70008C0130918D018DE491E0AC01249FC00175
:101C8000259F900D349F900D112428EE33E0B9016B
:101C90000E94A4149093920180939101AAC3209171
:101CA0008C0130918D018AEF90E0AC01249FC0013E
:101CB000259F900D349F900D112428EE33E0B9013B
:101CC0000E94A414909392018093910192C3209159
:101CD0008C0130918D0188EC90E0AC01249FC00113
:101CE000259F900D349F900D112428EE33E0B9010B
:101CF0000E94A41490939201809391017AC3209141
:101D00008C0130918D0186EA90E0AC01249FC001E6
:101D1000259F900D349F900D112428EE33E0B901DA
:101D20000E94A414909392018093910162C3209128
:101D30008C0130918D018FE890E0AC01249FC001AF
:101D4000259F900D349F900D112428EE33E0B901AA
:101D50000E94A41490939201809391014AC3209110
:101D60008C0130918D018DE790E0AC01249FC00182
:101D7000259F900D349F900D112428EE33E0B9017A
:101D80000E94A414909392018093910132C32091F8
:101D90008C0130918D018FE690E0AC01249FC00151
:101DA000259F900D349F900D112428EE33E0B9014A
:101DB0000E94A41490939201809391011AC3809180
:101DC0008E0190918F018A30910508F412C381E051
:101DD0008093930180918C0190918D0120918E01CF
:101DE00030918F01B9010E94A414CB0190939D0101
:101DF00080939C0180918C0190918D01CC01A0E099
:101E0000B0E0BC01CD010E94A9047B018C0180914E
:101E10008E0190918F01CC01A0E0B0E0BC01CD011A
:101E20000E94A9049B01AC01C801B7010E941903DB
:101E3000DC01CB017C018D0180919C0190919D0181
:101E4000CC01A0E0B0E0BC01CD010E94A9049B013F
:101E5000AC01C801B7010E94C101DC01CB01BC018A
:101E6000CD0120E030E04AE754E40E941F02DC018B
:101E7000CB01BC01CD010E944900DC01CB01909354
:101E8000920180939101B5C280919501823009F051
:101E9000B0C29091980180919901981709F043C2BE
:101EA00080919801282F30E03D832C834C815D8107
:101EB0004B325105C1F08C819D818C3291053CF4EF
:101EC0002C813D812A32310509F45FC092C24C81D8
:101ED0005D814D325105D9F08C819D818F32910504
:101EE00009F46DC086C280918B018F5F80938B0156
:101EF00020918C0130918D0180918E0190918F0104
:101F0000820F931F90939D0180939C0172C28091D8
:101F10008B018F5F80938B0120918C0130918D011B
:101F200080918E0190918F018217930778F48091B0
:101F30008C0190918D0120918E0130918F01821B37
:101F4000930B90939D0180939C0153C290918B01C0
:101F500080E0692F0E940A098DE20E94B507209156
:101F60008E0130918F0180918C0190918D01A9019A
:101F7000481B590BCA0190939D0180939C0180914D
:101F80008B018F5F80938B0134C280918B018F5FB7
:101F900080938B0120918C0130918D0180918E0175
:101FA00090918F01AC01249FC001259F900D349F1B
:101FB000900D112490939D0180939C011AC28091F1
:101FC0008E0190918F01009781F480918B01982F61
:101FD0009F5F80E0692F0E940A0980E690E00E94DE
:101FE000530881E08093940104C280918C01909108
:101FF0008D0120918E0130918F01B9010E94A414AE
:102000000097B1F480918B018F5F80938B01809159
:102010008C0190918D0120918E0130918F01B90139
:102020000E94A414CB0190939D0180939C01E1C177
:1020300080918E0190918F018A30910508F00EC138
:1020400081E08093930180918C0190918D0120918A
:102050008E0130918F01B9010E94A414CB0190939D
:102060009D0180939C0180918E0190918F019B83B3
:102070008A832A813B812530310509F477C04A8162
:102080005B814630510588F48A819B8183309105BC
:10209000E9F12A813B812430310508F04FC04A81A3
:1020A0005B8142305105D1F0A4C18A819B81873088
:1020B000910509F48BC02A813B812730310508F452
:1020C0006DC04A815B814830510509F497C08A810F
:1020D0009B818930910509F4A9C08BC120918C01A5
:1020E00030918D0184EF91E0AC01249FC001259FC8
:1020F000900D349F900D112428EE33E0B9010E9419
:10210000A414909392018093910173C120918C014A
:1021100030918D018DE491E0AC01249FC001259F99
:10212000900D349F900D112428EE33E0B9010E94E8
:10213000A41490939201809391015BC120918C0132
:1021400030918D018AEF90E0AC01249FC001259F62
:10215000900D349F900D112428EE33E0B9010E94B8
:10216000A414909392018093910143C120918C011A
:1021700030918D0188EC90E0AC01249FC001259F37
:10218000900D349F900D112428EE33E0B9010E9488
:10219000A41490939201809391012BC120918C0102
:1021A00030918D0186EA90E0AC01249FC001259F0B
:1021B000900D349F900D112428EE33E0B9010E9458
:1021C000A414909392018093910113C120918C01EA
:1021D00030918D018FE890E0AC01249FC001259FD4
:1021E000900D349F900D112428EE33E0B9010E9428
:1021F000A4149093920180939101FBC020918C01D3
:1022000030918D018DE790E0AC01249FC001259FA6
:10221000900D349F900D112428EE33E0B9010E94F7
:10222000A4149093920180939101E3C020918C01BA
:1022300030918D018FE690E0AC01249FC001259F75
:10224000900D349F900D112428EE33E0B9010E94C7
:10225000A4149093920180939101CBC080918E0140
:1022600090918F018A30910508F4C3C081E080937A
:10227000930180918C0190918D0120918E0130917C
:102280008F01B9010E94A414CB0190939D0180930A
:102290009C0180918C0190918D01CC01A0E0B0E077
:1022A000BC01CD010E94A9047B018C0180918E01AB
:1022B00090918F01CC01A0E0B0E0BC01CD010E9463
:1022C000A9049B01AC01C801B7010E941903DC01FC
:1022D000CB017C018D0180919C0190919D01CC01ED
:1022E000A0E0B0E0BC01CD010E94A9049B01AC01BB
:1022F000C801B7010E94C101DC01CB01BC01CD01C5
:1023000020E030E04AE754E40E941F02DC01CB01E8
:10231000BC01CD010E944900DC01CB0190939201E8
:102320008093910166C090919801809199019817CE
:1023300009F45FC0809198018B3221F4809199015A
:102340008D3251F0809198018D3209F043C0809117
:1023500099018B3209F03EC080918B018F5F809391
:102360008B0120918C0130918D0180918E01909193
:102370008F018217930778F480918C0190918D01E1
:1023800020918E0130918F01821B930B90939D01C0
:1023900080939C012EC090918B0180E0692F0E9458
:1023A0000A098DE20E94B50720918E0130918F01BC
:1023B00080918C0190918D01A901481B590BCA0194
:1023C00090939D0180939C0180918B018F5F8093FE
:1023D0008B010FC080918B01982F9F5F80E0692F48
:1023E0000E940A0980E690E00E94530881E08093F1
:1023F000940180919301813009F099C080918B0103
:102400008F5F80938B0190918B0180E0692F0E94F8
:102410000A0980919C0190919D01CC01A0E0B0E05F
:10242000BC01CD010E94690980918C0190918D01C0
:1024300020918E0130918F01B9010E94A414CB012B
:102440008A309105A8F080918C0190918D012091A6
:102450008E0130918F01B9010E94A414CB01843602
:10246000910530F480918B018F5F80938B013AC08E
:1024700080918C0190918D0120918E0130918F017E
:10248000B9010E94A414CB0184369105B0F080916B
:102490008C0190918D0120918E0130918F01B901B5
:1024A0000E94A414CB0153E0883E950730F480913C
:1024B0008B018E5F80938B0115C080918C01909170
:1024C0008D0120918E0130918F01B9010E94A414D9
:1024D000CB0123E0883E920728F080918B018D5F2D
:1024E00080938B0180918B018F5F80938B01909102
:1024F0008B0180E0692F0E940A098EE20E94B507D5
:1025000080918B018F5F80938B0190918B0180E094
:10251000692F0E940A098091910190919201CC014A
:10252000A0E0B0E0BC01CD010E94690915C0809116
:102530009401882389F490918B0180E0692F0E9497
:102540000A0980919C0190919D01CC01A0E0B0E02E
:10255000BC01CD010E94690929960FB6F894DEBF2F
:102560000FBECDBFCF91DF911F910F91FF90EF90E4
:102570000895DF93CF930F92CDB7DEB7898389811A
:10258000882F90E090938D0180938C018981882F12
:1025900090E0A0E0B0E0BC01CD010E94690980910B
:1025A0008B018F5F80938B0137C00E940F0C898352
:1025B00089818F3FD1F389818A30E1F189818B3024
:1025C000C9F189818C30B1F189818D3099F1809187
:1025D0008B018F5F80938B0180918C0190918D0195
:1025E0009C01220F331FC901880F991F880F991F63
:1025F000280F391F8981882F90E0820F931F9093B5
:102600008D0180938C018981882F90E0A0E0B0E05B
:10261000BC01CD010E94690989818A3031F6898126
:102620008B3019F689818C3009F0BFCF89818D30CC
:1026300009F0BBCF0F90CF91DF910895DF93CF9337
:1026400000D000D00F92CDB7DEB789838981282FC3
:1026500030E03D832C838C819D818B30910541F14D
:102660002C813D812C30310534F48C819D818A3060
:10267000910561F052C02C813D812C30310551F122
:102680008C819D818D309105B9F147C08BE20E940C
:10269000B50780919501882F90E0FC01E856FE4F28
:1026A0008BE28083809195018F5F8093950135C087
:1026B0008DE20E94B50780919501882F90E0FC0182
:1026C000E856FE4F8DE28083809195018F5F809365
:1026D000950123C08AE20E94B50780919501882F59
:1026E00090E0FC01E856FE4F8AE2808380919501DC
:1026F0008F5F8093950111C08FE20E94B507809192
:102700009501882F90E0FC01E856FE4F8FE2808310
:10271000809195018F5F8093950180918B018F5FF0
:1027200080938B018AE0898387C00E940F0C898384
:1027300089818F3FD1F380919501823008F08CC060
:102740008981282F30E03B832A838A819B818B30CB
:10275000910571F12A813B812C30310534F48A8155
:102760009B818A30910569F067C02A813B812C30BA
:102770003105A9F18A819B818D30910509F446C00C
:102780005BC08BE20E94B50780919501882F90E095
:10279000FC01E856FE4F8BE2808380918B018F5FB6
:1027A00080938B01809195018F5F8093950144C048
:1027B0008DE20E94B50780919501882F90E0FC0181
:1027C000E856FE4F8DE2808380918B018F5F80936E
:1027D0008B01809195018F5F809395012DC08AE2D6
:1027E0000E94B50780919501882F90E0FC01E85682
:1027F000FE4F8AE2808380918B018F5F80938B01F3
:10280000809195018F5F8093950116C08FE20E94A1
:10281000B50780919501882F90E0FC01E856FE4FA6
:102820008FE2808380918B018F5F80938B018091F9
:1028300095018F5F8093950189818A3009F475CF66
:1028400089818B3009F471CF89818C3009F46DCF87
:1028500089818D3009F469CF0F900F900F900F9000
:102860000F90CF91DF910895DF93CF930F92CDB763
:10287000DEB789838981882F90E090938F018093C0
:102880008E018981882F90E0A0E0B0E0BC01CD01ED
:102890000E94690980918B018F5F80938B012EC00C
:1028A0000E940F0C898389818F3FD1F389818F30FA
:1028B00041F180918B018F5F80938B0180918E011C
:1028C00090918F019C01220F331FC901880F991F1E
:1028D000880F991F280F391F8981882F90E0820F58
:1028E000931F90938F0180938E018981882F90E0B0
:1028F000A0E0B0E0BC01CD010E94690989818F3060
:1029000079F60F90CF91DF910895629FD001739F68
:10291000F001829FE00DF11D649FE00DF11D929F7B
:10292000F00D839FF00D749FF00D659FF00D9927BA
:10293000729FB00DE11DF91F639FB00DE11DF91FDE
:10294000BD01CF0111240895AA1BBB1B51E107C093
:10295000AA1FBB1FA617B70710F0A61BB70B881F2F
:10296000991F5A95A9F780959095BC01CD010895BE
:10297000A1E21A2EAA1BBB1BFD010DC0AA1FBB1F83
:10298000EE1FFF1FA217B307E407F50720F0A21BF5
:10299000B30BE40BF50B661F771F881F991F1A9462
:1029A00069F760957095809590959B01AC01BD018C
:1029B000CF0108952F923F924F925F926F927F9234
:1029C0008F929F92AF92BF92CF92DF92EF92FF923F
:1029D0000F931F93CF93DF93CDB7DEB7CA1BDB0BEB
:1029E0000FB6F894DEBF0FBECDBF09942A88398890
:1029F00048885F846E847D848C849B84AA84B98497
:102A0000C884DF80EE80FD800C811B81AA81B981A2
:102A1000CE0FD11D0FB6F894DEBF0FBECDBFED01B6
:062A20000895F894FFCFB9
:102A26004572726F72000000000000000000000195
:102A36000202030303030404040404040404050556
:102A4600050505050505050505050505050506062E
:102A56000606060606060606060606060606060610
:102A660006060606060606060606060606060707FE
:102A760007070707070707070707070707070707E0
:102A860007070707070707070707070707070707D0
:102A960007070707070707070707070707070707C0
:102AA60007070707070707070707070707070808AE
:102AB6000808080808080808080808080808080890
:102AC6000808080808080808080808080808080880
:102AD6000808080808080808080808080808080870
:102AE6000808080808080808080808080808080860
:102AF6000808080808080808080808080808080850
:102B0600080808080808080808080808080808083F
:102B1600080808080808080808080808080808082F
:102B2600080808080808080808080808080803022A
:102B3600010004050607000102030405060708094B
:0A2B46000A0B0C0D0E0F2B2D2A2F89
:00000001FF
