:100000000C942A000C94D00C0C9447000C944700DC
:100010000C9447000C9447000C94A3110C943D11D0
:100020000C9470110C940A110C94A4100C94D71019
:100030000C9447000C9447000C9447000C94470024
:100040000C9447000C9447000C9447000C94470014
:100050000C94470011241FBECFE5D8E0DEBFCDBF12
:1000600010E0A0E6B0E0ECE3F7E202C005900D92EC
:10007000A438B107D9F710E0A4E8B0E001C01D92A0
:10008000A63AB107E1F70E94D6110C949C130C9488
:100090000000EF92FF920F931F937B018C0120E0F1
:1000A00030E040E05FE40E94490388238CF0C801FF
:1000B000B70120E030E040E05FE40E94C1010E940F
:1000C000A9039B01AC01205030404040504806C07D
:1000D000C801B7010E94A9039B01AC01B901CA0183
:1000E0001F910F91FF90EF900895A0E0B0E0EBE733
:1000F000F0E00C946513DC012B01FA019C91923025
:1001000008F439C1EB018881823008F433C194309E
:1001100069F4843009F02FC111969C91119789815F
:10012000981709F428C1A8E7B0E025C1843009F484
:1001300021C18230A9F4923009F01DC19A01AD01AC
:1001400088E0EA010990AE01E90109929E0181501F
:10015000C1F7E201898111969C918923818308C1AD
:10016000923009F407C112962D903C901397EB0141
:100170008A819B811496AD90BD90CD90DC901797AD
:10018000EC80FD800E811F819101281B390BB90184
:1001900037FF04C066277727621B730B6032710537
:1001A0000CF061C0121613066CF537014801062EDB
:1001B00004C096948794779467940A94D2F721E0C8
:1001C00030E040E050E004C0220F331F441F551FB1
:1001D0006A95D2F721503040404050402E213F21B7
:1001E00040235123211531054105510521F021E01E
:1001F00030E040E050E079018A01E628F72808293C
:1002000019293CC0232BD1F1260E371E350146019A
:10021000062E04C096948794779467940A94D2F734
:1002200021E030E040E050E004C0220F331F441FC3
:10023000551F6A95D2F721503040404050402A2146
:100240003B214C215D21211531054105510521F04E
:1002500021E030E040E050E059016A01A628B728CB
:10026000C828D9280BC0821593052CF01C01AA249C
:10027000BB24650103C0EE24FF24870111969C91E5
:10028000D20111968C91981709F445C0992339F041
:10029000A80197012A193B094C095D0906C0A6016E
:1002A00095012E193F09400B510B57FD08C01182D3
:1002B0003382228224833583468357831DC081E0A5
:1002C00081833382228288279927DC01821B930B4A
:1002D000A40BB50B84839583A683B7830DC0220F2F
:1002E000331F441F551F24833583468357838281E0
:1002F000938101979383828324813581468157813D
:10030000DA01C9010197A109B1098F5F9F4FAF4F72
:10031000BF4328F30BC0918333822282EA0CFB1C7B
:100320000C1D1D1DE482F5820683178383E0808304
:10033000248135814681578157FF1AC0C901AA27F8
:1003400097FDA095BA2F81709070A070B0705695EF
:10035000479537952795822B932BA42BB52B848318
:100360009583A683B7838281938101969383828349
:10037000DF0101C0D201CD01CDB7DEB7E2E10C94BF
:100380008113A0E2B0E0E7ECF1E00C947113698313
:100390007A838B839C832D833E834F835887E9E048
:1003A000EE2EF12CEC0EFD1ECE010196B7010E943F
:1003B000D2048E010F5E1F4FCE010596B8010E9438
:1003C000D2048A8991E089278A8BC701B801AE01DE
:1003D000475E5F4F0E9475000E94FD03A096E6E015
:1003E0000C948D13A0E2B0E0E8EFF1E00C947113EF
:1003F00069837A838B839C832D833E834F835887C5
:10040000F9E0EF2EF12CEC0EFD1ECE010196B701A6
:100410000E94D2048E010F5E1F4FCE010596B801D7
:100420000E94D204C701B801AE01475E5F4F0E942F
:1004300075000E94FD03A096E6E00C948D13A0E2E7
:10044000B0E0E5E2F2E00C94651369837A838B8374
:100450009C832D833E834F835887CE010196BE0136
:10046000675F7F4F0E94D204CE010596BE016F5E8A
:100470007F4F0E94D2049985923088F0898982301A
:10048000C8F0943019F4823051F404C0843029F457
:10049000923081F488E790E0C6C0923049F420E0C1
:1004A0009A858A89981321E02A87CE010996BBC0D4
:1004B000823049F420E09A858A89981321E02A8BBA
:1004C000CE014196B0C02D843E844F8458886D88FB
:1004D0007E888F88988CEE24FF248701AA24BB2471
:1004E000650140E050E060E070E0E0E0F0E0C10174
:1004F00081709070892BE9F0E60CF71C081D191D1E
:100500009A01AB012A0D3B1D4C1D5D1D80E090E062
:10051000A0E0B0E0E614F7040805190520F481E036
:1005200090E0A0E0B0E0BA01A901480F591F6A1F8E
:100530007B1FAA0CBB1CCC1CDD1C97FE08C081E0F5
:1005400090E0A0E0B0E0A82AB92ACA2ADB2A3196B6
:10055000E032F10549F0660C771C881C991C569412
:10056000479437942794C3CFFA85EA892B893C892D
:100570008B859C85280F391F2E5F3F4F17C0CA01FE
:1005800081709070892B61F016950795F794E79428
:1005900080E090E0A0E0B0E8E82AF92A0A2B1B2BC3
:1005A00076956795579547952F5F3F4F77FDE7CF36
:1005B0000CC0440F551F661F771F17FD4160EE0CDE
:1005C000FF1C001F111F21503040403090E05907A0
:1005D00090E0690790E4790760F32B8F3C8FDB0193
:1005E000CA018F779070A070B07080349105A1051A
:1005F000B10561F447FD0AC0E114F10401051105DC
:1006000029F0405C5F4F6F4F7F4F40781A8EFE1786
:1006100011F081E08A8F4D8F5E8F6F8F78A383E01A
:10062000898FCE0149960E94FD03A096E2E10C94C9
:100630008113A8E1B0E0EFE1F3E00C94711369835A
:100640007A838B839C832D833E834F83588789E0F5
:10065000E82EF12CEC0EFD1ECE010196B7010E9492
:10066000D2048E010F5E1F4FCE010596B8010E9485
:10067000D2048985823040F08989823028F0C70110
:10068000B8010E944A0501C08FEF6896E6E00C941D
:100690008D13A8E1B0E0EFE4F3E00C9471136983EB
:1006A0007A838B839C832D833E834F83588789E095
:1006B000E82EF12CEC0EFD1ECE010196B7010E9432
:1006C000D2048E010F5E1F4FCE010596B8010E9425
:1006D000D2048985823040F08989823028F0C701B0
:1006E000B8010E944A0501C08FEF6896E6E00C94BD
:1006F0008D13A8E1B0E0EFE7F3E00C947113698388
:100700007A838B839C832D833E834F83588789E034
:10071000E82EF12CEC0EFD1ECE010196B7010E94D1
:10072000D2048E010F5E1F4FCE010596B8010E94C4
:10073000D2048985823040F08989823028F0C7014F
:10074000B8010E944A0501C081E06896E6E00C9479
:100750008D13ACE0B0E0EFEAF3E00C94751369831D
:100760007A838B839C83CE010196BE016B5F7F4FA2
:100770000E94D2048D81823061F1823050F1843048
:1007800021F48E81882351F12EC02F81388537FDC9
:1007900020C06E812F3131051CF06623F9F023C093
:1007A0008EE190E0821B930B29853A854B855C8511
:1007B00004C056954795379527958A95D2F76623B5
:1007C000B1F050954095309521953F4F4F4F5F4F79
:1007D0000EC020E030E040E050E009C02FEF3FEFD6
:1007E0004FEF5FE704C020E030E040E050E8B9019F
:1007F000CA012C96E2E00C949113DF92EF92FF92E3
:100800000F931F93FC01E480F58006811781D1804E
:100810008081823048F480E090E0A0E1B0E0E82AF6
:10082000F92A0A2B1B2BA5C0843009F49FC0823003
:1008300021F4EE24FF24870105C0E114F104010531
:10084000110519F4E0E0F0E096C0628173819FEF3A
:10085000623879070CF05BC022E83FEF261B370BAC
:100860002A3131052CF020E030E040E050E02AC091
:10087000B801A701022E04C0769567955795479554
:100880000A94D2F781E090E0A0E0B0E004C0880FC5
:10089000991FAA1FBB1F2A95D2F70197A109B10979
:1008A0008E219F21A023B1230097A105B10521F03E
:1008B00081E090E0A0E0B0E09A01AB01282B392B59
:1008C0004A2B5B2BDA01C9018F779070A070B07052
:1008D00080349105A105B10539F427FF09C0205CDA
:1008E0003F4F4F4F5F4F04C0215C3F4F4F4F5F4F13
:1008F000E0E0F0E02030A0E03A07A0E04A07A0E402
:100900005A0710F0E1E0F0E079018A0127C0603871
:10091000710564F5FB01E158FF4FD801C7018F77DE
:100920009070A070B07080349105A105B10539F4C4
:10093000E7FE0DC080E490E0A0E0B0E004C08FE3EB
:1009400090E0A0E0B0E0E80EF91E0A1F1B1F17FFA1
:1009500005C016950795F794E794319687E01695AC
:100960000795F794E7948A95D1F705C0EE24FF2404
:100970008701EFEFF0E06E2F679566276795902F60
:100980009F77D794DD24D7948E2F8695492F462BB9
:10099000582F5D29B701CA011F910F91FF90EF9069
:1009A000DF900895FC01DB01408151812281622F9B
:1009B0006F7770E0221F2227221F9381892F880FD3
:1009C000822B282F30E0991F9927991F11969C930D
:1009D000119721153105A9F54115510561057105DD
:1009E00011F482E037C082E89FEF13969C938E93B8
:1009F00012979A01AB0167E0220F331F441F551F66
:100A00006A95D1F783E08C930DC0220F331F441FEA
:100A1000551F12968D919C911397019713969C9355
:100A20008E931297203080E0380780E0480780E4FA
:100A3000580758F314962D933D934D935C93179755
:100A400008952F3F310579F4411551056105710570
:100A500019F484E08C93089564FF03C081E08C93C3
:100A600012C01C9210C02F57304013963C932E9307
:100A7000129783E08C9387E0440F551F661F771F02
:100A80008A95D1F7706414964D935D936D937C9322
:100A9000179708951F93DC01FB019C91923008F495
:100AA00047C08081823008F443C0943051F41196DD
:100AB0001C91843099F58181682F70E0611B710968
:100AC0003FC0843021F0923031F48230B9F181811D
:100AD000882389F12DC011961C9111978230F1F075
:100AE00081811817D9F412962D913C911397828128
:100AF00093818217930794F028173907BCF0149656
:100B00008D919D910D90BC91A02D248135814681C0
:100B10005781281739074A075B0718F4112341F05A
:100B20000AC082179307A407B50740F4112319F0F0
:100B300061E070E005C06FEF7FEF02C060E070E041
:100B4000CB011F910895DF93CF93CDB7DEB72F97D9
:100B50000FB6F894DEBF0FBECDBF8F8782E060E096
:100B600040E00E94A90882E061E040E00E94A908FC
:100B700080E06F850E94BB0982E062E041E00E9454
:100B8000A90880E090E0A0E0B0E48B879C87AD8767
:100B9000BE876B857C858D859E8520E030E04AEFA1
:100BA00054E40E941F02DC01CB018F839887A98740
:100BB000BA876F81788589859A8520E030E040E8A2
:100BC0005FE30E94790388232CF481E090E09E8308
:100BD0008D833FC06F81788589859A8520E03FEFBE
:100BE0004FE757E40E94190318164CF56B857C8576
:100BF0008D859E8520E030E040E251E40E941F0296
:100C0000DC01CB01BC01CD010E944900DC01CB011C
:100C10009E838D830FC088EC90E09C838B838B81B7
:100C20009C810197F1F79C838B838D819E81019735
:100C30009E838D838D819E81009769F714C06F819B
:100C4000788589859A850E944900DC01CB019E83C5
:100C50008D838D819E819A83898389819A81019771
:100C6000F1F79A83898382E062E040E00E94A9085C
:100C70002F960FB6F894DEBF0FBECDBFCF91DF9198
:100C80000895DF93CF93CDB7DEB72F970FB6F894C3
:100C9000DEBF0FBECDBF8F8782E060E041E00E94E3
:100CA000A90882E061E040E00E94A90880E06F8529
:100CB0000E94BB0982E062E041E00E94A90880E056
:100CC00090E0A0E0B0E48B879C87AD87BE876B8502
:100CD0007C858D859E8520E030E04AEF54E40E94BB
:100CE0001F02DC01CB018F839887A987BA876F81A8
:100CF000788589859A8520E030E040E85FE30E94AE
:100D0000790388232CF481E090E09E838D833FC09B
:100D10006F81788589859A8520E03FEF4FE757E41A
:100D20000E94190318164CF56B857C858D859E8570
:100D300020E030E040E251E40E941F02DC01CB01E0
:100D4000BC01CD010E944900DC01CB019E838D8353
:100D50000FC088EC90E09C838B838B819C810197F2
:100D6000F1F79C838B838D819E8101979E838D8378
:100D70008D819E81009769F714C06F817885898580
:100D80009A850E944900DC01CB019E838D838D8171
:100D90009E819A83898389819A810197F1F79A8349
:100DA000898382E062E040E00E94A9082F960FB696
:100DB000F894DEBF0FBECDBFCF91DF910895DF93D2
:100DC000CF9300D00F92CDB7DEB79B838A83198271
:100DD0000EC08981282F30E08A819B81FC01E20FBF
:100DE000F31F80810E94410689818F5F89838981F9
:100DF000282F30E08A819B81FC01E20FF31F808164
:100E0000882339F70F900F900F90CF91DF910895BD
:100E1000DF93CF93CDB7DEB72E970FB6F894DEBF32
:100E20000FBECDBF80E090E0A0E2B2E48B879C874C
:100E3000AD87BE876B857C858D859E8520E030E003
:100E40004AEF54E40E941F02DC01CB018F83988794
:100E5000A987BA876F81788589859A8520E030E0F7
:100E600040E85FE30E94790388232CF481E090E05E
:100E70009E838D833FC06F81788589859A8520E028
:100E80003FEF4FE757E40E94190318164CF56B85A6
:100E90007C858D859E8520E030E040E251E40E9413
:100EA0001F02DC01CB01BC01CD010E944900DC0125
:100EB000CB019E838D830FC088EC90E09C838B8355
:100EC0008B819C810197F1F79C838B838D819E811F
:100ED00001979E838D838D819E81009769F714C051
:100EE0006F81788589859A850E944900DC01CB0154
:100EF0009E838D838D819E819A83898389819A8146
:100F00000197F1F79A83898388E30E94A3058CE017
:100F10000E94A30581E00E94A3052E960FB6F894C7
:100F2000DEBF0FBECDBFCF91DF910895DF93CF938A
:100F300000D00F92CDB7DEB78A836B838A81882376
:100F400019F48B81898306C08A81813019F48B81E1
:100F5000805C8983898180580E94A3050F900F903F
:100F60000F90CF91DF910895DF93CF93CDB7DEB788
:100F700027970FB6F894DEBF0FBECDBF9C838B833F
:100F80006D834E832F831A828D81882F90E0880F86
:100F9000991F880F991F880F991F8A838A81805C07
:100FA0000E94A30519820EC08981282F30E08B8111
:100FB0009C81FC01E20FF31F80810E944106898120
:100FC0008F5F89838981883078F38E816F810E9459
:100FD00096078D810E94410627960FB6F894DEBFD2
:100FE0000FBECDBFCF91DF910895DF93CF93CDB7E3
:100FF000DEB72E970FB6F894DEBF0FBECDBF6B875E
:101000007C878D879E871A8681E090E0A0E0B0E023
:101010008D839E83AF83B8878B859C85AD85BE8588
:1010200089839A83AB83BC838B859C85AD85BE8584
:101030000097A105B105C9F480E30E94410680C074
:101040008A858F5F8A8789819A81AB81BC812AE0FA
:1010500030E040E050E0BC01CD010E944313DA01D2
:10106000C90189839A83AB83BC8389819A81AB81CF
:10107000BC810097A105B10519F715C08A8581507B
:101080008A878D819E81AF81B8852AE030E040E07B
:1010900050E0BC01CD010E942413DC01CB018D8303
:1010A0009E83AF83B8878A85823040F740C08B85A6
:1010B0009C85AD85BE852D813E814F815885BC01C3
:1010C000CD010E944313DA01C90189878985805DBA
:1010D0000E9441068985882F90E0A0E0B0E02D8134
:1010E0003E814F815885BC01CD010E9424139B0194
:1010F000AC018B859C85AD85BE85821B930BA40BB3
:10110000B50B8B879C87AD87BE878D819E81AF8114
:10111000B8852AE030E040E050E0BC01CD010E94FB
:101120004313DA01C9018D839E83AF83B8878D8114
:101130009E81AF81B8850097A105B10509F0B7CFB1
:101140002E960FB6F894DEBF0FBECDBFCF91DF91C4
:101150000895DF93CF93CDB7DEB728970FB6F894F5
:10116000DEBF0FBECDBF8A836B834C8319828B8118
:10117000883008F0F4C08C81813009F072C08A8117
:10118000282F30E038872F838F8198858130910513
:1011900049F12F813885223031052CF48F819885D3
:1011A000009761F05BC02F8138852230310571F1E5
:1011B0008F81988583309105E9F150C0ABE3B0E0B1
:1011C000EBE3F0E08081482F8B81282F30E081E035
:1011D00090E0022E02C0880F991F0A94E2F7842B38
:1011E0008C93BFC0A8E3B0E0E8E3F0E08081482F33
:1011F0008B81282F30E081E090E0022E02C0880F22
:10120000991F0A94E2F7842B8C93ABC0A5E3B0E05E
:10121000E5E3F0E08081482F8B81282F30E081E0EA
:1012200090E0022E02C0880F991F0A94E2F7842BE7
:101230008C9397C0A2E3B0E0E2E3F0E08081482F16
:101240008B81282F30E081E090E0022E02C0880FD1
:10125000991F0A94E2F7842B8C9383C081E08983E1
:1012600080C08C81882309F077C08A81282F30E0E4
:101270003E832D838D819E818130910559F12D8191
:101280003E81223031052CF48D819E81009769F0DA
:1012900060C02D813E812230310589F18D819E8192
:1012A0008330910509F440C054C0ABE3B0E0EBE3F8
:1012B000F0E08081482F8B81282F30E081E090E0A2
:1012C000022E02C0880F991F0A94E2F780958423AA
:1012D0008C9347C0A8E3B0E0E8E3F0E08081482FBA
:1012E0008B81282F30E081E090E0022E02C0880F31
:1012F000991F0A94E2F7809584238C9332C0A5E36A
:10130000B0E0E5E3F0E08081482F8B81282F30E0CA
:1013100081E090E0022E02C0880F991F0A94E2F744
:10132000809584238C931DC0A2E3B0E0E2E3F0E05B
:101330008081482F8B81282F30E081E090E0022EC1
:1013400002C0880F991F0A94E2F7809584238C933A
:1013500008C081E0898305C081E0898302C081E003
:101360008983898128960FB6F894DEBF0FBECDBF62
:10137000CF91DF910895DF93CF9300D000D00F92EB
:10138000CDB7DEB78A836B8319828A81282F30E03C
:101390003D832C838C819D8181309105D1F02C81FE
:1013A0003D81223031052CF48C819D81009761F0C4
:1013B0001FC02C813D812230310581F08C819D81BF
:1013C0008330910581F014C0EBE3F0E08B818083E2
:1013D00011C0E8E3F0E08B8180830CC0E5E3F0E02E
:1013E0008B81808307C0E2E3F0E08B81808302C0C1
:1013F00081E0898389810F900F900F900F900F905B
:10140000CF91DF910895DF93CF93CDB7DEB72797C4
:101410000FB6F894DEBF0FBECDBF8A836B835D83AA
:101420004C8319828C819D81009709F478C08B814F
:10143000883008F074C08A81282F30E03F832E83E3
:101440004E815F814130510559F18E819F818230FB
:10145000910534F42E813F812115310569F05CC07E
:101460004E815F814230510579F18E819F818330B9
:10147000910509F43DC050C0E9E3F0E08081282FD8
:1014800030E08B81882F90E0A90102C055954795E7
:101490008A95E2F7CA018170EC81FD81808341C0A9
:1014A000E6E3F0E08081282F30E08B81882F90E008
:1014B000A90102C0559547958A95E2F7CA01817046
:1014C000EC81FD8180832DC0E3E3F0E08081282F53
:1014D00030E08B81882F90E0A90102C05595479597
:1014E0008A95E2F7CA018170EC81FD81808319C081
:1014F000E0E3F0E08081282F30E08B81882F90E0BE
:10150000A90102C0559547958A95E2F7CA018170F5
:10151000EC81FD81808305C081E0898302C081E088
:101520008983898127960FB6F894DEBF0FBECDBFA1
:10153000CF91DF910895DF93CF93CDB7DEB7A5E5C7
:10154000B0E0E5E5F0E0808182608C93A5E5B0E055
:10155000E5E5F0E0808181608C93ABE5B0E0EBE500
:10156000F0E0808180648C93CF91DF910895DF93C8
:10157000CF93CDB7DEB7A5E5B0E0E5E5F0E080813B
:1015800088608C93A5E5B0E0E5E5F0E080818B7F95
:101590008C93ABE5B0E0EBE5F0E0808180688C9364
:1015A000CF91DF910895DF93CF93CDB7DEB7A4E558
:1015B000B0E0E4E5F0E080818F7B8C93ABE5B0E0B8
:1015C000EBE5F0E0808180628C93CF91DF9108950C
:1015D000DF93CF9300D000D0CDB7DEB78A831982D6
:1015E0008A81282F30E03C832B838B819C81823041
:1015F000910509F443C02B813C812330310534F43B
:101600008B819C818130910551F147C02B813C81B8
:101610002330310531F08B819C818430910581F03C
:101620003CC0A5E5B0E0E5E5F0E0808182608C9308
:10163000A5E5B0E0E5E5F0E080818E7F8C932FC0DA
:10164000A5E5B0E0E5E5F0E0808182608C93A5E55A
:10165000B0E0E5E5F0E0808181608C9320C0A5E5F5
:10166000B0E0E5E5F0E080818D7F8C93A5E5B0E00A
:10167000E5E5F0E080818E7F8C9311C0A5E5B0E0B8
:10168000E5E5F0E080818D7F8C93A5E5B0E0E5E5B0
:10169000F0E0808181608C9302C081E08983898140
:1016A0000F900F900F900F90CF91DF910895DF93DF
:1016B000CF9300D000D0CDB7DEB78A8319828A815C
:1016C000282F30E03C832B838B819C8182309105D5
:1016D00009F443C02B813C812330310534F48B81E4
:1016E0009C818130910551F147C02B813C81233091
:1016F000310531F08B819C818430910581F03CC0B3
:10170000A5E5B0E0E5E5F0E0808188608C93A5E593
:10171000B0E0E5E5F0E080818B7F8C932FC0A5E5FC
:10172000B0E0E5E5F0E0808188608C93A5E5B0E06D
:10173000E5E5F0E0808184608C9320C0A5E5B0E011
:10174000E5E5F0E08081877F8C93A5E5B0E0E5E5F5
:10175000F0E080818B7F8C9311C0A5E5B0E0E5E5DA
:10176000F0E08081877F8C93A5E5B0E0E5E5F0E0CF
:10177000808184608C9302C081E0898389810F908D
:101780000F900F900F90CF91DF910895DF93CF933B
:1017900000D000D00F92CDB7DEB78A8319828A813C
:1017A000282F30E03C832B838B819C8183309105F3
:1017B00031F02B813C812430310549F010C0A4E583
:1017C000B0E0E4E5F0E080818F7B8C930EC0A5E56E
:1017D000B0E0E5E5F0E0808180648C9306C081E0B4
:1017E000898389818D838D8100C00F900F900F9028
:1017F0000F900F90CF91DF910895DF93CF9300D09A
:1018000000D0CDB7DEB78A8319828A81282F30E0D5
:101810003C832B838B819C818230910591F02B81BD
:101820003C8123303105A9F08B819C818130910569
:10183000C1F4ABE5B0E0EBE5F0E0808180648C932F
:1018400012C0ABE5B0E0EBE5F0E0808180688C93FE
:101850000AC0ABE5B0E0EBE5F0E0808180628C93FC
:1018600002C081E0898389810F900F900F900F90C3
:10187000CF91DF910895DF93CF9300D000D0CDB703
:10188000DEB78A8319828A81282F30E03C832B833C
:101890008B819C818230910591F02B813C8123309A
:1018A0003105A9F08B819C8181309105C1F4ABE5B4
:1018B000B0E0EBE5F0E080818F7B8C9312C0ABE56C
:1018C000B0E0EBE5F0E080818F778C930AC0ABE568
:1018D000B0E0EBE5F0E080818F7D8C9302C081E089
:1018E000898389810F900F900F900F90CF91DF9196
:1018F0000895DF93CF9300D00F92CDB7DEB79B83CF
:101900008A8319828A819B81009739F08A819B8121
:10191000909385008093840002C082E0898389814E
:101920000F900F900F90CF91DF910895DF93CF9399
:1019300000D00F92CDB7DEB79B838A8319828A814C
:101940009B81009739F08A819B81909387008093D7
:10195000860002C082E0898389810F900F900F90EA
:10196000CF91DF910895DF93CF9300D00F92CDB741
:10197000DEB79B838A8319828A819B81009739F025
:101980008A819B81909389008093880002C082E0C5
:10199000898389810F900F900F90CF91DF910895E7
:1019A0001F920F920FB60F9211242F933F934F93D4
:1019B0005F936F937F938F939F93AF93BF93EF93B7
:1019C000FF93DF93CF93CDB7DEB7809184009091E2
:1019D0008500009729F0E0918400F0918500099539
:1019E000CF91DF91FF91EF91BF91AF919F918F9137
:1019F0007F916F915F914F913F912F910F900FBE0B
:101A00000F901F901895DF93CF93CDB7DEB7AFE55A
:101A1000B0E0EFE5F0E0808180688C93CF91DF91BA
:101A20000895DF93CF93CDB7DEB7AFE5B0E0EFE534
:101A3000F0E080818F778C93CF91DF910895DF93D1
:101A4000CF93CDB7DEB7EAE3F0E08FEF8083E7E333
:101A5000F0E088E08083E4E3F0E087E08083E1E386
:101A6000F0E01082EBE3F0E01082E8E3F0E01082B7
:101A7000E5E3F0E01082E2E3F0E01082CF91DF9145
:101A80000895DF93CF9300D0CDB7DEB79A838983D3
:101A9000E981FA8180818130E1F5A3E5B0E0E3E5F9
:101AA000F0E0808180648C93A3E5B0E0E3E5F0E0B2
:101AB000808188608C93E981FA818181823091F400
:101AC000A3E5B0E0E3E5F0E0808180628C93A3E5DC
:101AD000B0E0E3E5F0E080818F7E8C9380E40E94AB
:101AE000220E2DC0E981FA818181813041F5A3E583
:101AF000B0E0E3E5F0E0808180628C93A3E5B0E0A4
:101B0000E3E5F0E0808180618C938FEB0E94220EF0
:101B100016C0E981FA818081823089F4A3E5B0E0C2
:101B2000E3E5F0E0808180648C93A3E5B0E0E3E539
:101B3000F0E08081877F8C9380E40E94220EA3E5F1
:101B4000B0E0E3E5F0E08081887F8C93E981FA8161
:101B50008281823041F4A3E5B0E0E3E5F0E08081EA
:101B600082608C9326C0E981FA818281833041F4BE
:101B7000A3E5B0E0E3E5F0E0808183608C9319C0D9
:101B8000E981FA818281843041F4A3E5B0E0E3E5A4
:101B9000F0E0808184608C930CC0E981FA818281BD
:101BA000853039F4A3E5B0E0E3E5F0E080818560BD
:101BB0008C930F900F90CF91DF910895DF93CF9387
:101BC00000D0CDB7DEB79A838983AFE4B0E0EFE40D
:101BD000F0E0808180688C93AFE4B0E0EFE4F0E067
:101BE00080818F7B8C93AEE4B0E0EEE4F0E0808106
:101BF00080618C93AEE4B0E0EEE4F0E08081886038
:101C00008C93AFE4B0E0EFE4F0E0808182608C93ED
:101C1000AFE4B0E0EFE4F0E080818E7F8C93AEE43F
:101C2000B0E0EEE4F0E08081887F8C93AEE4B0E039
:101C3000EEE4F0E0808182608C930F900F90CF9162
:101C4000DF910895DF93CF930F92CDB7DEB78983ED
:101C5000ECE5F0E0898180830F90CF91DF910895CA
:101C6000DF93CF9300D0CDB7DEB79A838983E6E4C4
:101C7000F0E089819A81918380830F900F90CF91BA
:101C8000DF910895DF93CF9300D0CDB7DEB79A836D
:101C90008983EAE4F0E089819A81918380830F90BF
:101CA0000F90CF91DF910895DF93CF9300D0CDB700
:101CB000DEB79A838983E8E4F0E089819A81918391
:101CC00080830F900F90CF91DF910895DF93CF9392
:101CD000CDB7DEB7A3E5B0E0E3E5F0E08081806456
:101CE0008C93A3E5B0E0E3E5F0E0808188608C931D
:101CF000A9E5B0E0E9E5F0E0808182608C9380E4C2
:101D00000E94C40FA3E5B0E0E3E5F0E08081887FA6
:101D10008C93A3E5B0E0E3E5F0E0808182608C93F2
:101D2000CF91DF910895DF93CF9300D0CDB7DEB789
:101D30009A838983E981FA818081813021F5AEE43B
:101D4000B0E0EEE4F0E080818F7E8C93AEE4B0E012
:101D5000EEE4F0E08081877F8C93AFE4B0E0EFE4C5
:101D6000F0E080818D7F8C93AFE4B0E0EFE4F0E0B1
:101D700080818E7F8C93A9E5B0E0E9E5F0E0808179
:101D800084608C9337C0E981FA818081823091F53B
:101D9000AEE4B0E0EEE4F0E080818F7E8C93AEE4C0
:101DA000B0E0EEE4F0E0808188608C93AFE4B0E0D6
:101DB000EFE4F0E080818D7F8C93AFE4B0E0EFE45E
:101DC000F0E080818E7F8C93A9E5B0E0E9E5F0E05A
:101DD000808180618C93A9E5B0E0E9E5F0E0808145
:101DE00088608C9380E490E00E94EF0F80E490E0A4
:101DF0000E940110AEE4B0E0EEE4F0E08081887F64
:101E00008C93E981FA818181823041F4AEE4B0E0C3
:101E1000EEE4F0E0808182608C9326C0E981FA8153
:101E20008181833041F4AEE4B0E0EEE4F0E0808103
:101E300083608C9319C0E981FA818181843041F4F7
:101E4000AEE4B0E0EEE4F0E0808184608C930CC0FE
:101E5000E981FA818181853039F4AEE4B0E0EEE4C5
:101E6000F0E0808185608C930F900F90CF91DF918F
:101E70000895DF93CF93CDB7DEB7AEE4B0E0EEE4E4
:101E8000F0E0808180648C93A9E5B0E0E9E5F0E0C2
:101E9000808180628C93CF91DF910895DF93CF93FF
:101EA00000D0CDB7DEB78A8319828A81813041F4B0
:101EB000AEE4B0E0EEE4F0E0808180648C930DC08D
:101EC0008A81823041F4AEE4B0E0EEE4F0E080815B
:101ED0008F7B8C9302C081E0898389810F900F9062
:101EE000CF91DF910895DF93CF93CDB7DEB7A9E50A
:101EF000B0E0E9E5F0E0808180628C93CF91DF91E2
:101F00000895DF93CF93CDB7DEB7A9E5B0E0E9E55B
:101F1000F0E080818F7D8C93CF91DF910895DF93E6
:101F2000CF93CDB7DEB7E6E4F0E080819181CF9129
:101F3000DF910895DF93CF9300D00F92CDB7DEB736
:101F40009B838A8319828A819B81009711F419826D
:101F500006C08A819B81909395008093940089812B
:101F60000F900F900F90CF91DF910895DF93CF9353
:101F70000F92CDB7DEB78983E2E5F0E089818083F7
:101F80000F90CF91DF910895DF93CF930F92CDB74C
:101F9000DEB78983ECE5F0E0898180830F90CF91F3
:101FA000DF910895DF93CF93CDB7DEB7ECE4F0E097
:101FB00080819181CF91DF910895DF93CF9300D0FD
:101FC000CDB7DEB79A838983ECE4F0E089819A810A
:101FD000918380830F900F90CF91DF910895DF93CD
:101FE000CF9300D0CDB7DEB79A838983EAE4F0E0DF
:101FF00089819A81918380830F900F90CF91DF9197
:102000000895DF93CF9300D0CDB7DEB79A8389834D
:10201000E8E4F0E089819A81918380830F900F90AA
:10202000CF91DF910895DF93CF9300D00F92CDB77A
:10203000DEB79B838A8319828A819B81009719F47A
:1020400082E0898306C08A819B8190938B00809374
:102050008A0089810F900F900F90CF91DF910895A2
:10206000DF93CF9300D00F92CDB7DEB79B838A83E7
:1020700019828A819B81009719F482E0898306C0C6
:102080008A819B8190938D0080938C0089810F9031
:102090000F900F90CF91DF910895DF93CF9300D0F1
:1020A0000F92CDB7DEB79B838A8319828A819B8189
:1020B000009719F482E0898306C08A819B819093FE
:1020C0008F0080938E0089810F900F900F90CF9199
:1020D000DF910895DF93CF9300D00F92CDB7DEB795
:1020E0009B838A8319828A819B81009719F482E0FD
:1020F000898306C08A819B81909391008093900090
:1021000089810F900F900F90CF91DF910895DF9309
:10211000CF9300D00F92CDB7DEB79B838A8319820D
:102120008A819B81009719F482E0898306C08A81A5
:102130009B81909393008093920089810F900F90E0
:102140000F90CF91DF9108951F920F920FB60F92CB
:1021500011242F933F934F935F936F937F938F93AC
:102160009F93AF93BF93EF93FF93DF93CF93CDB73D
:10217000DEB780918A0090918B00009729F0E09162
:102180008A00F0918B000995CF91DF91FF91EF913B
:10219000BF91AF919F918F917F916F915F914F917F
:1021A0003F912F910F900FBE0F901F9018951F9287
:1021B0000F920FB60F9211242F933F934F935F937B
:1021C0006F937F938F939F93AF93BF93EF93FF93FF
:1021D000DF93CF93CDB7DEB780918C0090918D00C7
:1021E000009729F0E0918C00F0918D000995CF9136
:1021F000DF91FF91EF91BF91AF919F918F917F916F
:102200006F915F914F913F912F910F900FBE0F9063
:102210001F9018951F920F920FB60F9211242F93B3
:102220003F934F935F936F937F938F939F93AF935E
:10223000BF93EF93FF93DF93CF93CDB7DEB780913A
:102240008E0090918F00009729F0E0918E00F09120
:102250008F000995CF91DF91FF91EF91BF91AF91E1
:102260009F918F917F916F915F914F913F912F91AE
:102270000F900FBE0F901F9018951F920F920FB6E0
:102280000F9211242F933F934F935F936F937F93FC
:102290008F939F93AF93BF93EF93FF93DF93CF936E
:1022A000CDB7DEB78091900090919100009729F012
:1022B000E0919000F09191000995CF91DF91FF910D
:1022C000EF91BF91AF919F918F917F916F915F91AE
:1022D0004F913F912F910F900FBE0F901F90189527
:1022E0001F920F920FB60F9211242F933F934F938B
:1022F0005F936F937F938F939F93AF93BF93EF936E
:10230000FF93DF93CF93CDB7DEB78091920090918A
:102310009300009729F0E0919200F09193000995C5
:10232000CF91DF91FF91EF91BF91AF919F918F91ED
:102330007F916F915F914F913F912F910F900FBEC1
:102340000F901F9018951F920F920FB60F921124A5
:102350002F933F934F935F936F937F938F939F93AD
:10236000AF93BF93EF93FF93DF93CF93CDB7DEB7D8
:102370008091940090919500009729F0E09194004D
:10238000F09195000995CF91DF91FF91EF91BF9169
:10239000AF919F918F917F916F915F914F913F91FD
:1023A0002F910F900FBE0F901F901895DF93CF9332
:1023B000CDB7DEB72A970FB6F894DEBF0FBECDBFFC
:1023C0000E941F0D0E94390F8FE892E10E949A0F20
:1023D00084E193E10E944D100E940807CE0101960E
:1023E0009F838E83E0E8F0E0F987E887F3E0FA87DF
:1023F000E885F98500808885998501969987888781
:10240000EE81FF8100828E819F8101969F838E8362
:102410009A8591509A87EA85EE2351F7CE0101966D
:102420000E94410D81E08C8382E08D83CE01049671
:102430000E94930E0E94030D809196009091970048
:10244000009731F480919800909199000097A1F342
:1024500080E060E00E94960780E690E00E94DF0640
:102460008091960090919700CC01A0E0B0E0BC0173
:10247000CD010E94F50781E060E00E9496078EE69C
:1024800090E00E94DF068091980090919900CC0125
:10249000A0E0B0E0BC01CD010E94F507CDCFDF93F5
:1024A000CF93CDB7DEB780919C008F5F80939C0067
:1024B00080919C00813029F480E090E00E94DD0F43
:1024C0002BC080919C00823051F40E94D20F9093D7
:1024D00097008093960083E00E94E80A1DC08091D7
:1024E0009C008330C9F40E94D20F9093990080938E
:1024F00098002091980030919900809196009091D9
:102500009700A901481B590BCA0190939900809329
:10251000980081E00E943B0CCF91DF910895DF93FA
:10252000CF93CDB7DEB780919D0090919E0001962C
:1025300090939E0080939D0080919D0090919E00BD
:1025400081309105A1F40E948F0F9C0180919A0027
:1025500090919B00CC01A0E0B0E0DC019927882796
:10256000820F931F9093A4008093A3005AC0809180
:102570009D0090919E008230910539F50E948F0F49
:102580009C0180919A0090919B00CC01A0E0B0E06A
:10259000DC0199278827820F931F9093A2008093D4
:1025A000A1002091A1003091A2008091A300909100
:1025B000A400A901481B590BCA019093970080936E
:1025C000960082E00E944E0F2CC080919D00909159
:1025D0009E008330910529F50E948F0F9C01809108
:1025E0009A0090919B00CC01A0E0B0E0DC0199271B
:1025F0008827820F931F9093A00080939F002091C3
:102600009F003091A0008091A1009091A200A901AB
:10261000481B590BCA0190939900809398000E941F
:10262000810FCF91DF910895DF93CF93CDB7DEB7C0
:1026300080919A0090919B00019690939B008093CB
:102640009A00CF91DF910895629FD001739FF001AE
:10265000829FE00DF11D649FE00DF11D929FF00D32
:10266000839FF00D749FF00D659FF00D9927729F69
:10267000B00DE11DF91F639FB00DE11DF91FBD01F4
:10268000CF0111240895A1E21A2EAA1BBB1BFD0144
:102690000DC0AA1FBB1FEE1FFF1FA217B307E40741
:1026A000F50720F0A21BB30BE40BF50B661F771F99
:1026B000881F991F1A9469F7609570958095909579
:1026C0009B01AC01BD01CF0108952F923F924F9223
:1026D0005F926F927F928F929F92AF92BF92CF92B2
:1026E000DF92EF92FF920F931F93CF93DF93CDB7BB
:1026F000DEB7CA1BDB0B0FB6F894DEBF0FBECDBF33
:1027000009942A88398848885F846E847D848C8403
:102710009B84AA84B984C884DF80EE80FD800C810C
:102720001B81AA81B981CE0FD11D0FB6F894DEBFEF
:0C2730000FBECDBFED010895F894FFCF5F
:10273C00506572696F64205469636B733A004F4E35
:10274C00205469636B733A00000000000000000025
:04275C000102020074
:00000001FF
