:100000000C942A000C9447000C9447000C94470071
:100010000C9447000C9447000C9447000C94470044
:100020000C9447000C9447000C9447000C94470034
:100030000C9447000C9447000C9447000C94470024
:100040000C9447000C9447000C9447000C94470014
:100050000C94470011241FBECFE5D8E0DEBFCDBF12
:1000600012E0A0E6B0E0E8EFFDE202C005900D92DC
:10007000A030B107D9F712E0A0E0B2E001C01D92B4
:10008000A230B107E1F70E9495130C94FA160C9474
:100090000000EF92FF920F931F937B018C0120E0F1
:1000A00030E040E05FE40E94F50388238CF0C80153
:1000B000B70120E030E040E05FE40E94C1010E940F
:1000C00055049B01AC01205030404040504806C0D0
:1000D000C801B7010E9455049B01AC01B901CA01D6
:1000E0001F910F91FF90EF900895A0E0B0E0EBE733
:1000F000F0E00C94C316DC012B01FA019C919230C4
:1001000008F439C1EB018881823008F433C194309E
:1001100069F4843009F02FC111969C91119789815F
:10012000981709F428C1AFEDB0E025C1843009F477
:1001300021C18230A9F4923009F01DC19A01AD01AC
:1001400088E0EA010990AE01E90109929E0181501F
:10015000C1F7E201898111969C918923818308C1AD
:10016000923009F407C112962D903C901397EB0141
:100170008A819B811496AD90BD90CD90DC901797AD
:10018000EC80FD800E811F819101281B390BB90184
:1001900037FF04C066277727621B730B6032710537
:1001A0000CF061C0121613066CF537014801062EDB
:1001B00004C096948794779467940A94D2F721E0C8
:1001C00030E040E050E004C0220F331F441F551FB1
:1001D0006A95D2F721503040404050402E213F21B7
:1001E00040235123211531054105510521F021E01E
:1001F00030E040E050E079018A01E628F72808293C
:1002000019293CC0232BD1F1260E371E350146019A
:10021000062E04C096948794779467940A94D2F734
:1002200021E030E040E050E004C0220F331F441FC3
:10023000551F6A95D2F721503040404050402A2146
:100240003B214C215D21211531054105510521F04E
:1002500021E030E040E050E059016A01A628B728CB
:10026000C828D9280BC0821593052CF01C01AA249C
:10027000BB24650103C0EE24FF24870111969C91E5
:10028000D20111968C91981709F445C0992339F041
:10029000A80197012A193B094C095D0906C0A6016E
:1002A00095012E193F09400B510B57FD08C01182D3
:1002B0003382228224833583468357831DC081E0A5
:1002C00081833382228288279927DC01821B930B4A
:1002D000A40BB50B84839583A683B7830DC0220F2F
:1002E000331F441F551F24833583468357838281E0
:1002F000938101979383828324813581468157813D
:10030000DA01C9010197A109B1098F5F9F4FAF4F72
:10031000BF4328F30BC0918333822282EA0CFB1C7B
:100320000C1D1D1DE482F5820683178383E0808304
:10033000248135814681578157FF1AC0C901AA27F8
:1003400097FDA095BA2F81709070A070B0705695EF
:10035000479537952795822B932BA42BB52B848318
:100360009583A683B7838281938101969383828349
:10037000DF0101C0D201CD01CDB7DEB7E2E10C94BF
:10038000DF16A0E2B0E0E7ECF1E00C94CF16698351
:100390007A838B839C832D833E834F835887E9E048
:1003A000EE2EF12CEC0EFD1ECE010196B7010E943F
:1003B00046068E010F5E1F4FCE010596B8010E94C2
:1003C00046068A8991E089278A8BC701B801AE0168
:1003D000475E5F4F0E9475000E947105A096E6E09F
:1003E0000C94EB16A0E2B0E0E8EFF1E00C94CF162D
:1003F00069837A838B839C832D833E834F835887C5
:10040000F9E0EF2EF12CEC0EFD1ECE010196B701A6
:100410000E9446068E010F5E1F4FCE010596B80161
:100420000E944606C701B801AE01475E5F4F0E94B9
:1004300075000E947105A096E6E00C94EB16A0E210
:10044000B0E0E5E2F2E00C94C31669837A838B8313
:100450009C832D833E834F835887CE010196BE0136
:10046000675F7F4F0E944606CE010596BE016F5E14
:100470007F4F0E9446069985923088F089898230A4
:10048000C8F0943019F4823051F404C0843029F457
:10049000923081F48FED90E0C6C0923049F420E0B4
:1004A0009A858A89981321E02A87CE010996BBC0D4
:1004B000823049F420E09A858A89981321E02A8BBA
:1004C000CE014196B0C02D843E844F8458886D88FB
:1004D0007E888F88988CEE24FF248701AA24BB2471
:1004E000650140E050E060E070E0E0E0F0E0C10174
:1004F00081709070892BE9F0E60CF71C081D191D1E
:100500009A01AB012A0D3B1D4C1D5D1D80E090E062
:10051000A0E0B0E0E614F7040805190520F481E036
:1005200090E0A0E0B0E0BA01A901480F591F6A1F8E
:100530007B1FAA0CBB1CCC1CDD1C97FE08C081E0F5
:1005400090E0A0E0B0E0A82AB92ACA2ADB2A3196B6
:10055000E032F10549F0660C771C881C991C569412
:10056000479437942794C3CFFA85EA892B893C892D
:100570008B859C85280F391F2E5F3F4F17C0CA01FE
:1005800081709070892B61F016950795F794E79428
:1005900080E090E0A0E0B0E8E82AF92A0A2B1B2BC3
:1005A00076956795579547952F5F3F4F77FDE7CF36
:1005B0000CC0440F551F661F771F17FD4160EE0CDE
:1005C000FF1C001F111F21503040403090E05907A0
:1005D00090E0690790E4790760F32B8F3C8FDB0193
:1005E000CA018F779070A070B07080349105A1051A
:1005F000B10561F447FD0AC0E114F10401051105DC
:1006000029F0405C5F4F6F4F7F4F40781A8EFE1786
:1006100011F081E08A8F4D8F5E8F6F8F78A383E01A
:10062000898FCE0149960E947105A096E2E10C9453
:10063000DF16A8E1B0E0EFE1F3E00C94CB1669839C
:100640007A838B839C832D833E834F835887B9E0C5
:10065000EB2EF12CEC0EFD1ECE010196B7010E948F
:1006600046068E010F5E1F4FCE010596B8010E940F
:1006700046062985223008F47EC03989323010F4CC
:10068000B8017CC08A859A8989278A87243011F02D
:10069000223031F4231709F06EC06FED70E06EC0A8
:1006A000343039F41D861E861F86188A1C861B86E8
:1006B00004C0323021F484E08987B7015FC02B8504
:1006C0003C858B899C89281B390B3C872B87ED84C3
:1006D000FE840F851889AD88BE88CF88D88CEA142F
:1006E000FB040C051D0540F4EE0CFF1C001F111F40
:1006F000215030403C872B8720E030E040E050E044
:1007000080E090E0A0E0B0E460E070E0EA14FB0478
:100710000C051D0540F0282B392B4A2B5B2BEA18C2
:10072000FB080C091D09B695A79597958795EE0CC2
:10073000FF1C001F111F6F5F7F4F6F31710531F775
:10074000DA01C9018F779070A070B0708034910584
:10075000A105B10561F427FD0AC0E114F10401050A
:10076000110529F0205C3F4F4F4F5F4F20782D87B8
:100770003E874F87588BBE01675F7F4FCB010E943A
:1007800071056896EAE00C94E716A8E1B0E0EBEC9E
:10079000F3E00C94CF1669837A838B839C832D833B
:1007A0003E834F83588789E0E82EF12CEC0EFD1E26
:1007B000CE010196B7010E9446068E010F5E1F4FC3
:1007C000CE010596B8010E9446068985823040F028
:1007D0008989823028F0C701B8010E94BE0601C095
:1007E0008FEF6896E6E00C94EB16A8E1B0E0EBEF33
:1007F000F3E00C94CF1669837A838B839C832D83DB
:100800003E834F83588789E0E82EF12CEC0EFD1EC5
:10081000CE010196B7010E9446068E010F5E1F4F62
:10082000CE010596B8010E9446068985823040F0C7
:100830008989823028F0C701B8010E94BE0601C034
:100840008FEF6896E6E00C94EB16A8E1B0E0EBE2DF
:10085000F4E00C94CF1669837A838B839C832D8379
:100860003E834F83588789E0E82EF12CEC0EFD1E65
:10087000CE010196B7010E9446068E010F5E1F4F02
:10088000CE010596B8010E9446068985823040F067
:100890008989823028F0C701B8010E94BE0601C0D4
:1008A00081E06896E6E00C94EB16ACE0B0E0EBE596
:1008B000F4E00C94D31669837A838B839C83CE01F6
:1008C0000196BE016B5F7F4F0E9446068D8182308C
:1008D00061F1823050F1843021F48E81882351F10E
:1008E0002EC02F81388537FD20C06E812F31310514
:1008F0001CF06623F9F023C08EE190E0821B930B7D
:1009000029853A854B855C8504C056954795379572
:1009100027958A95D2F76623B1F05095409530958A
:1009200021953F4F4F4F5F4F0EC020E030E040E039
:1009300050E009C02FEF3FEF4FEF5FE704C020E02A
:1009400030E040E050E8B901CA012C96E2E00C9496
:10095000EF16A8E0B0E0EFEAF4E00C94CB167B01D0
:100960008C01611571058105910519F482E0898377
:1009700060C083E089838EE1C82ED12CDC82CB82DB
:10098000ED82FE820F831887C801B7010E942205FD
:10099000FC013197F7FF3BC0222733272E1B3F0B6B
:1009A00057016801022E04C0D694C794B794A79447
:1009B0000A94D2F740E050E060E070E081E090E01F
:1009C000A0E0B0E004C0880F991FAA1FBB1F2A95A2
:1009D000D2F70197A109B1098E219F21A023B1234C
:1009E0000097A105B10521F041E050E060E070E022
:1009F0004A295B296C297D294D835E836F83788723
:100A00008EE190E08E1B9F0B9C838B8312C03097EE
:100A100081F00E2E04C0EE0CFF1C001F111F0A9463
:100A2000D2F7ED82FE820F831887CE1ADF0ADC82AE
:100A3000CB821A82CE0101960E9471052896EAE0C7
:100A40000C94E716EF92FF920F931F937B018C019A
:100A500080E0E81680E0F80681E0080780E01807EB
:100A600088F48FEFE816F1040105110531F028F044
:100A700088E090E0A0E0B0E017C080E090E0A0E067
:100A8000B0E012C080E0E81680E0F80680E00807D9
:100A900081E0180728F088E190E0A0E0B0E004C011
:100AA00080E190E0A0E0B0E020E230E040E050E003
:100AB000281B390B4A0B5B0B04C016950795F7945E
:100AC000E7948A95D2F7F701E951FF4F8081281BFF
:100AD000310941095109C9011F910F91FF90EF9010
:100AE0000895DF92EF92FF920F931F93FC01E48031
:100AF000F58006811781D1808081823048F480E0C2
:100B000090E0A0E1B0E0E82AF92A0A2B1B2BA5C04F
:100B1000843009F49FC0823021F4EE24FF24870141
:100B200005C0E114F1040105110519F4E0E0F0E05D
:100B300096C0628173819FEF623879070CF05BC0C9
:100B400022E83FEF261B370B2A3131052CF020E03D
:100B500030E040E050E02AC0B801A701022E04C0F6
:100B600076956795579547950A94D2F781E090E07E
:100B7000A0E0B0E004C0880F991FAA1FBB1F2A95F0
:100B8000D2F70197A109B1098E219F21A023B1239A
:100B90000097A105B10521F081E090E0A0E0B0E070
:100BA0009A01AB01282B392B4A2B5B2BDA01C901A7
:100BB0008F779070A070B07080349105A105B10559
:100BC00039F427FF09C0205C3F4F4F4F5F4F04C0EF
:100BD000215C3F4F4F4F5F4FE0E0F0E02030A0E05E
:100BE0003A07A0E04A07A0E45A0710F0E1E0F0E07D
:100BF00079018A0127C06038710564F5FB01E1586D
:100C0000FF4FD801C7018F779070A070B07080340B
:100C10009105A105B10539F4E7FE0DC080E490E02F
:100C2000A0E0B0E004C08FE390E0A0E0B0E0E80E08
:100C3000F91E0A1F1B1F17FF05C016950795F7948D
:100C4000E794319687E016950795F794E7948A958F
:100C5000D1F705C0EE24FF248701EFEFF0E06E2FFF
:100C6000679566276795902F9F77D794DD24D79453
:100C70008E2F8695492F462B582F5D29B701CA0123
:100C80001F910F91FF90EF90DF900895FC01DB0121
:100C9000408151812281622F6F7770E0221F2227CD
:100CA000221F9381892F880F822B282F30E0991FD4
:100CB0009927991F11969C93119721153105A9F534
:100CC000411551056105710511F482E037C082E8D4
:100CD0009FEF13969C938E9312979A01AB0167E056
:100CE000220F331F441F551F6A95D1F783E08C9361
:100CF0000DC0220F331F441F551F12968D919C91DA
:100D00001397019713969C938E931297203080E04F
:100D1000380780E0480780E4580758F314962D936D
:100D20003D934D935C93179708952F3F310579F4C8
:100D3000411551056105710519F484E08C930895FE
:100D400064FF03C081E08C9312C01C9210C02F5727
:100D5000304013963C932E93129783E08C9387E058
:100D6000440F551F661F771F8A95D1F7706414963C
:100D70004D935D936D937C93179708951F93DC01BA
:100D8000FB019C91923008F447C08081823008F4C6
:100D900043C0943051F411961C91843099F58181AF
:100DA000682F70E0611B71093FC0843021F09230E0
:100DB00031F48230B9F18181882389F12DC01196F7
:100DC0001C9111978230F1F081811817D9F4129695
:100DD0002D913C911397828193818217930794F010
:100DE00028173907BCF014968D919D910D90BC91F8
:100DF000A02D2481358146815781281739074A075C
:100E00005B0718F4112341F00AC082179307A40767
:100E1000B50740F4112319F061E070E005C06FEFF1
:100E20007FEF02C060E070E0CB011F910895DF9377
:100E3000CF93CDB7DEB72F970FB6F894DEBF0FBEB6
:100E4000CDBF8F8782E060E040E00E94AA0B82E085
:100E500061E040E00E94AA0B81E06F850E94BC0C1B
:100E600082E062E041E00E94AA0B80E090E0A0E016
:100E7000B0E48B879C87AD87BE876B857C858D852D
:100E80009E8520E030E04AEF54E40E941F02DC011E
:100E9000CB018F839887A987BA876F8178858985E9
:100EA0009A8520E030E040E85FE30E942504882333
:100EB0002CF481E090E09E838D833FC06F81788524
:100EC00089859A8520E03FEF4FE757E40E94C503EC
:100ED00018164CF56B857C858D859E8520E030E06D
:100EE00040E251E40E941F02DC01CB01BC01CD01B4
:100EF0000E944900DC01CB019E838D830FC088ECEA
:100F000090E09C838B838B819C810197F1F79C837C
:100F10008B838D819E8101979E838D838D819E81A0
:100F2000009769F714C06F81788589859A850E943A
:100F30004900DC01CB019E838D838D819E819A8344
:100F4000898389819A810197F1F79A83898382E065
:100F500062E040E00E94AA0B2F960FB6F894DEBF25
:100F60000FBECDBFCF91DF910895DF93CF93CDB763
:100F7000DEB72F970FB6F894DEBF0FBECDBF8F87B9
:100F800082E060E041E00E94AA0B82E061E040E084
:100F90000E94AA0B81E06F850E94BC0C82E062E097
:100FA00041E00E94AA0B80E090E0A0E0B0E48B87D3
:100FB0009C87AD87BE876B857C858D859E8520E06F
:100FC00030E04AEF54E40E941F02DC01CB018F8322
:100FD0009887A987BA876F81788589859A8520E067
:100FE00030E040E85FE30E94250488232CF481E090
:100FF00090E09E838D833FC06F81788589859A8537
:1010000020E03FEF4FE757E40E94C50318164CF568
:101010006B857C858D859E8520E030E040E251E443
:101020000E941F02DC01CB01BC01CD010E944900DE
:10103000DC01CB019E838D830FC088EC90E09C8304
:101040008B838B819C810197F1F79C838B838D81AE
:101050009E8101979E838D838D819E81009769F784
:1010600014C06F81788589859A850E944900DC01CA
:10107000CB019E838D838D819E819A838983898113
:101080009A810197F1F79A83898382E062E040E0D8
:101090000E94AA0B2F960FB6F894DEBF0FBECDBFED
:1010A000CF91DF910895DF93CF9300D00F92CDB70A
:1010B000DEB79B838A8319820EC08981282F30E096
:1010C0008A819B81FC01E20FF31F80810E94B5079A
:1010D00089818F5F89838981282F30E08A819B8174
:1010E000FC01E20FF31F8081882339F70F900F90E6
:1010F0000F90CF91DF910895DF93CF93CDB7DEB7F7
:101100002E970FB6F894DEBF0FBECDBF80E090E003
:10111000A0E2B2E48B879C87AD87BE876B857C8518
:101120008D859E8520E030E04AEF54E40E941F0246
:10113000DC01CB018F839887A987BA876F81788577
:1011400089859A8520E030E040E85FE30E9425042D
:1011500088232CF481E090E09E838D833FC06F81D3
:10116000788589859A8520E03FEF4FE757E40E9414
:10117000C50318164CF56B857C858D859E8520E012
:1011800030E040E251E40E941F02DC01CB01BC01CF
:10119000CD010E944900DC01CB019E838D830FC0ED
:1011A00088EC90E09C838B838B819C810197F1F785
:1011B0009C838B838D819E8101979E838D838D81FE
:1011C0009E81009769F714C06F81788589859A851B
:1011D0000E944900DC01CB019E838D838D819E811D
:1011E0009A83898389819A810197F1F79A83898308
:1011F00088E30E9417078CE00E94170781E00E9495
:1012000017072E960FB6F894DEBF0FBECDBFCF9155
:10121000DF910895DF93CF9300D00F92CDB7DEB763
:101220008A836B838A81882319F48B81898306C022
:101230008A81813019F48B81805C8983898180580F
:101240000E9417070F900F900F90CF91DF91089594
:10125000DF93CF93CDB7DEB727970FB6F894DEBFF5
:101260000FBECDBF9C838B836D834E832F831A82E9
:101270008D81882F90E0880F991F880F991F880F04
:10128000991F8A838A81805C0E94170719820EC089
:101290008981282F30E08B819C81FC01E20FF31FB4
:1012A00080810E94B50789818F5F89838981883019
:1012B00078F38E816F810E940A098D810E94B507A3
:1012C00027960FB6F894DEBF0FBECDBFCF91DF914A
:1012D0000895DF93CF93CDB7DEB72E970FB6F8946E
:1012E000DEBF0FBECDBF6B877C878D879E871A863A
:1012F00081E090E0A0E0B0E08D839E83AF83B8876B
:101300008B859C85AD85BE8589839A83AB83BC83A1
:101310008B859C85AD85BE850097A105B105C9F477
:1013200080E30E94B50780C08A858F5F8A878981A4
:101330009A81AB81BC812AE030E040E050E0BC0102
:10134000CD010E94A116DA01C90189839A83AB837A
:10135000BC8389819A81AB81BC810097A105B105CD
:1013600019F715C08A8581508A878D819E81AF814A
:10137000B8852AE030E040E050E0BC01CD010E9499
:101380008216DC01CB018D839E83AF83B8878A856B
:10139000823040F740C08B859C85AD85BE852D8110
:1013A0003E814F815885BC01CD010E94A116DA0112
:1013B000C90189878985805D0E94B5078985882F45
:1013C00090E0A0E0B0E02D813E814F815885BC01C6
:1013D000CD010E9482169B01AC018B859C85AD8559
:1013E000BE85821B930BA40BB50B8B879C87AD87A7
:1013F000BE878D819E81AF81B8852AE030E040E0D4
:1014000050E0BC01CD010E94A116DA01C9018D8313
:101410009E83AF83B8878D819E81AF81B885009709
:10142000A105B10509F0B7CF2E960FB6F894DEBF2F
:101430000FBECDBFCF91DF910895DF93CF93CDB78E
:10144000DEB783E060E041E00E94AA0B83E061E048
:1014500040E00E94AA0BCF91DF910895DF93CF93D4
:10146000CDB7DEB783E060E040E00E94AA0B83E0E6
:1014700061E041E00E94AA0BCF91DF910895DF93D4
:10148000CF93CDB7DEB783E060E040E00E94AA0BC7
:1014900083E061E040E00E94AA0BCF91DF910895C4
:1014A000DF93CF93CDB7DEB728970FB6F894DEBFA2
:1014B0000FBECDBF8A836B834C8319828B818830AA
:1014C00008F0F4C08C81813009F072C08A81282F25
:1014D00030E038872F838F8198858130910549F1DD
:1014E0002F813885223031052CF48F819885009723
:1014F00061F05BC02F8138852230310571F18F8119
:10150000988583309105E9F150C0AAE3B0E0EAE3A1
:10151000F0E08081482F8B81282F30E081E090E03F
:10152000022E02C0880F991F0A94E2F7842B8C9335
:10153000BFC0A7E3B0E0E7E3F0E08081482F8B81F4
:10154000282F30E081E090E0022E02C0880F991F22
:101550000A94E2F7842B8C93ABC0A4E3B0E0E4E3FD
:10156000F0E08081482F8B81282F30E081E090E0EF
:10157000022E02C0880F991F0A94E2F7842B8C93E5
:1015800097C0A1E3B0E0E1E3F0E08081482F8B81D8
:10159000282F30E081E090E0022E02C0880F991FD2
:1015A0000A94E2F7842B8C9383C081E0898380C006
:1015B0008C81882309F077C08A81282F30E03E8310
:1015C0002D838D819E818130910559F12D813E8140
:1015D000223031052CF48D819E81009769F060C026
:1015E0002D813E812230310589F18D819E818330AC
:1015F000910509F440C054C0AAE3B0E0EAE3F0E08A
:101600008081482F8B81282F30E081E090E0022EEE
:1016100002C0880F991F0A94E2F7809584238C9367
:1016200047C0A7E3B0E0E7E3F0E08081482F8B817B
:10163000282F30E081E090E0022E02C0880F991F31
:101640000A94E2F7809584238C9332C0A4E3B0E03F
:10165000E4E3F0E08081482F8B81282F30E081E0A7
:1016600090E0022E02C0880F991F0A94E2F780953D
:1016700084238C931DC0A1E3B0E0E1E3F0E080811E
:10168000482F8B81282F30E081E090E0022E02C0AD
:10169000880F991F0A94E2F7809584238C9308C0E1
:1016A00081E0898305C081E0898302C081E089836C
:1016B000898128960FB6F894DEBF0FBECDBFCF91BB
:1016C000DF910895DF93CF9300D000D00F92CDB774
:1016D000DEB78A836B8319828A81282F30E03D83AD
:1016E0002C838C819D8181309105D1F02C813D81AD
:1016F000223031052CF48C819D81009761F01FC050
:101700002C813D812230310581F08C819D81833097
:10171000910581F014C0EAE3F0E08B81808311C071
:10172000E7E3F0E08B8180830CC0E4E3F0E08B81A1
:10173000808307C0E1E3F0E08B81808302C081E019
:10174000898389810F900F900F900F900F90CF9108
:10175000DF910895DF93CF93CDB7DEB728970FB60B
:10176000F894DEBF0FBECDBF8A836B834C83198292
:101770008B81883008F0F4C08C81813009F072C010
:101780008A81282F30E038872F838F819885813098
:10179000910549F12F813885223031052CF48F8154
:1017A0009885009761F05BC02F8138852230310524
:1017B00071F18F81988583309105E9F150C0ABE3D9
:1017C000B0E0EBE3F0E08081482F8B81282F30E000
:1017D00081E090E0022E02C0880F991F0A94E2F780
:1017E000842B8C93BFC0A8E3B0E0E8E3F0E08081F5
:1017F000482F8B81282F30E081E090E0022E02C03C
:10180000880F991F0A94E2F7842B8C93ABC0A5E351
:10181000B0E0E5E3F0E08081482F8B81282F30E0B5
:1018200081E090E0022E02C0880F991F0A94E2F72F
:10183000842B8C9397C0A2E3B0E0E2E3F0E08081D8
:10184000482F8B81282F30E081E090E0022E02C0EB
:10185000880F991F0A94E2F7842B8C9383C081E050
:10186000898380C08C81882309F077C08A81282FE2
:1018700030E03E832D838D819E818130910559F129
:101880002D813E81223031052CF48D819E8100977F
:1018900069F060C02D813E812230310589F18D8152
:1018A0009E818330910509F440C054C0ABE3B0E0A1
:1018B000EBE3F0E08081482F8B81282F30E081E03E
:1018C00090E0022E02C0880F991F0A94E2F78095DB
:1018D00084238C9347C0A8E3B0E0E8E3F0E0808184
:1018E000482F8B81282F30E081E090E0022E02C04B
:1018F000880F991F0A94E2F7809584238C9332C055
:10190000A5E3B0E0E5E3F0E08081482F8B81282F4C
:1019100030E081E090E0022E02C0880F991F0A9407
:10192000E2F7809584238C931DC0A2E3B0E0E2E34C
:10193000F0E08081482F8B81282F30E081E090E01B
:10194000022E02C0880F991F0A94E2F78095842323
:101950008C9308C081E0898305C081E0898302C03F
:1019600081E08983898128960FB6F894DEBF0FBE87
:10197000CDBFCF91DF910895DF93CF9300D000D0FA
:101980000F92CDB7DEB78A836B8319828A81282FA5
:1019900030E03D832C838C819D8181309105D1F095
:1019A0002C813D81223031052CF48C819D81009762
:1019B00061F01FC02C813D812230310581F08C8186
:1019C0009D818330910581F014C0EBE3F0E08B81C1
:1019D000808311C0E8E3F0E08B8180830CC0E5E3F5
:1019E000F0E08B81808307C0E2E3F0E08B818083AD
:1019F00002C081E0898389810F900F900F900F9032
:101A00000F90CF91DF910895DF93CF93CDB7DEB7DD
:101A100027970FB6F894DEBF0FBECDBF8A836B83C6
:101A20005D834C8319828C819D81009709F478C075
:101A30008B81883008F074C08A81282F30E03F8382
:101A40002E834E815F814130510559F18E819F81F6
:101A50008230910534F42E813F812115310569F0E2
:101A60005CC04E815F814230510579F18E819F814A
:101A70008330910509F43DC050C0E9E3F0E0808176
:101A8000282F30E08B81882F90E0A90102C0559566
:101A900047958A95E2F7CA018170EC81FD818083C8
:101AA00041C0E6E3F0E08081282F30E08B81882F71
:101AB00090E0A90102C0559547958A95E2F7CA01C1
:101AC0008170EC81FD8180832DC0E3E3F0E08081B3
:101AD000282F30E08B81882F90E0A90102C0559516
:101AE00047958A95E2F7CA018170EC81FD81808378
:101AF00019C0E0E3F0E08081282F30E08B81882F4F
:101B000090E0A90102C0559547958A95E2F7CA0170
:101B10008170EC81FD81808305C081E0898302C0F2
:101B200081E08983898127960FB6F894DEBF0FBEC6
:101B3000CDBFCF91DF910895DF93CF93CDB7DEB7BF
:101B4000AFE5B0E0EFE5F0E0808180688C93CF9165
:101B5000DF910895DF93CF93CDB7DEB7AFE5B0E067
:101B6000EFE5F0E080818F778C93CF91DF9108953E
:101B7000DF93CF9300D000D00F92CDB7DEB78FEFB9
:101B80008B831A825EC08A81882F90E0FC01E55128
:101B9000FE4F908180E0692F40E00E94AA0B1982DD
:101BA0003DC08981882F90E0FC01E951FE4F908172
:101BB0009E012C5F3F4F80E0692FA9010E94040D18
:101BC0008C81882341F58981482F50E08A81282F14
:101BD00030E0CA01880F991F880F991F820F931F49
:101BE000FC01E151FE4F80818B830FC08981882FDA
:101BF00090E0FC01E951FE4F90819E012C5F3F4F28
:101C000080E0692FA9010E94040D8C81882371F363
:101C10008B818D831CC089818F5F8983898184300A
:101C200008F4BFCF8A81882F90E0FC01E551FE4F78
:101C3000908180E0692F41E00E94AA0B8A818F5F2A
:101C40008A838A81843008F49ECF8B818D838D8135
:101C50000F900F900F900F900F90CF91DF910895FC
:101C6000DF93CF93CDB7DEB7EAE3F0E080EF808378
:101C7000E7E3F0E08FEF8083E4E3F0E087E0808348
:101C8000E1E3F0E08FEF8083EBE3F0E08FEF808320
:101C9000E8E3F0E08FEF8083E5E3F0E01082E2E339
:101CA000F0E01082CF91DF910895DF93CF93CDB70D
:101CB000DEB7AFE4B0E0EFE4F0E0808180688C93C1
:101CC000AFE4B0E0EFE4F0E080818F7B8C93AEE492
:101CD000B0E0EEE4F0E0808180618C93AEE4B0E0AF
:101CE000EEE4F0E0808188608C93AFE4B0E0EFE454
:101CF000F0E0808182608C93AFE4B0E0EFE4F0E04C
:101D000080818E7F8C93AEE4B0E0EEE4F0E08081E1
:101D1000887F8C93AEE4B0E0EEE4F0E080818260F6
:101D20008C93CF91DF910895DF93CF9300D0CDB7FF
:101D3000DEB79A838983E6E4F0E089819A81918312
:101D400080830F900F90CF91DF910895DF93CF9311
:101D500000D0CDB7DEB79A838983EAE4F0E08981C9
:101D60009A81918380830F900F90CF91DF91089596
:101D7000DF93CF93CDB7DEB7EC970FB6F894DEBF05
:101D80000FBECDBF9CAF8BAF1AAE19AE8BAD9CAD65
:101D9000CC01A0E0B0E0BC01CD010E94A904DC01AF
:101DA000CB01BC01CD0123E333E343E35EE30E94B7
:101DB0001903DC01CB01BC01CD0120E030E040E89B
:101DC00050E40E941903DC01CB01BC01CD010E944B
:101DD0004900DC01CB019AAF89AF1DC283E062E00C
:101DE00040E00E94AA0B83E063E041E00E94AA0B5E
:101DF00083E064E041E00E94AA0B83E065E041E0FB
:101E00000E94AA0B80E090E0A0E0B0E48DAB9EAB16
:101E1000AFABB8AF6DA97EA98FA998AD20E030E037
:101E20004AEF54E40E941F02DC01CB0189AB9AAB5C
:101E3000ABABBCAB69A97AA98BA99CA920E030E027
:101E400040E85FE30E94250488232CF481E090E0C1
:101E500098AB8FA73FC069A97AA98BA99CA920E05C
:101E60003FEF4FE757E40E94C50318164CF56DA9E4
:101E70007EA98FA998AD20E030E040E251E40E94B5
:101E80001F02DC01CB01BC01CD010E944900DC0135
:101E9000CB0198AB8FA70FC088EC90E09EA78DA7D1
:101EA0008DA59EA50197F1F79EA78DA78FA598A94F
:101EB000019798AB8FA78FA598A9009769F714C0D1
:101EC00069A97AA98BA99CA90E944900DC01CB01D0
:101ED00098AB8FA78FA598A99CA78BA78BA59CA52E
:101EE0000197F1F79CA78BA783E062E041E00E9495
:101EF000AA0B83E063E040E00E94AA0B83E064E069
:101F000041E00E94AA0B83E065E041E00E94AA0B39
:101F100080E090E0A0E0B0E48FA398A7A9A7BAA7BB
:101F20006FA178A589A59AA520E030E04AEF54E496
:101F30000E941F02DC01CB018BA39CA3ADA3BEA317
:101F40006BA17CA18DA19EA120E030E040E85FE381
:101F50000E94250488232CF481E090E09AA389A3B1
:101F60003FC06BA17CA18DA19EA120E03FEF4FE778
:101F700057E40E94C50318164CF56FA178A589A5F2
:101F80009AA520E030E040E251E40E941F02DC010B
:101F9000CB01BC01CD010E944900DC01CB019AA319
:101FA00089A30FC088EC90E098A38F8F8F8D98A1A4
:101FB0000197F1F798A38F8F89A19AA101979AA30E
:101FC00089A389A19AA1009769F714C06BA17CA18C
:101FD0008DA19EA10E944900DC01CB019AA389A397
:101FE00089A19AA19E8F8D8F8D8D9E8D0197F1F77E
:101FF0009E8F8D8F83E062E041E00E94AA0B83E018
:1020000063E041E00E94AA0B83E064E040E00E94AC
:10201000AA0B83E065E041E00E94AA0B80E090E01B
:10202000A0E0B0E4898F9A8FAB8FBC8F698D7A8DD9
:102030008B8D9C8D20E030E04AEF54E40E941F021B
:10204000DC01CB018D8B9E8BAF8BB88F6D897E8928
:102050008F89988D20E030E040E85FE30E942504FE
:1020600088232CF481E090E09C8B8B8B3FC06D89A2
:102070007E898F89988D20E03FEF4FE757E40E94DB
:10208000C50318164CF5698D7A8D8B8D9C8D20E0DB
:1020900030E040E251E40E941F02DC01CB01BC01B0
:1020A000CD010E944900DC01CB019C8B8B8B0FC0C2
:1020B00088EC90E09A8B898B89899A890197F1F74E
:1020C0009A8B898B8B899C8901979C8B8B8B8B89B5
:1020D0009C89009769F714C06D897E898F89988DD6
:1020E0000E944900DC01CB019C8B8B8B8B899C89E6
:1020F000988B8F878F8598890197F1F7988B8F87B9
:1021000083E062E041E00E94AA0B83E063E041E0EB
:102110000E94AA0B83E064E041E00E94AA0B83E0E6
:1021200065E040E00E94AA0B80E090E0A0E0B0E40F
:102130008B879C87AD87BE876B857C858D859E85CB
:1021400020E030E04AEF54E40E941F02DC01CB01A2
:102150008F839887A987BA876F81788589859A85C3
:1021600020E030E040E85FE30E94250488232CF45F
:1021700081E090E09E838D833FC06F817885898563
:102180009A8520E03FEF4FE757E40E94C5031816F9
:102190004CF56B857C858D859E8520E030E040E2A6
:1021A00051E40E941F02DC01CB01BC01CD010E9461
:1021B0004900DC01CB019E838D830FC088EC90E049
:1021C0009C838B838B819C810197F1F79C838B830C
:1021D0008D819E8101979E838D838D819E81009745
:1021E00069F714C06F81788589859A850E944900B6
:1021F000DC01CB019E838D838D819E819A838983AF
:1022000089819A810197F1F79A83898389AD9AAD83
:1022100001979AAF89AF89AD9AAD009709F0DECDED
:10222000EC960FB6F894DEBF0FBECDBFCF91DF9115
:102230000895DF93CF93CDB7DEB7EC970FB6F89440
:10224000DEBF0FBECDBF9CAF8BAF1AAE19AE8BAD4C
:102250009CADCC01A0E0B0E0BC01CD010E94A9047E
:10226000DC01CB01BC01CD0123E333E343E35EE3B7
:102270000E941903DC01CB01BC01CD0120E030E05C
:1022800040E850E40E941903DC01CB01BC01CD0100
:102290000E944900DC01CB019AAF89AF1DC283E0E7
:1022A00062E041E00E94AA0B83E063E041E00E940B
:1022B000AA0B83E064E041E00E94AA0B83E065E0A2
:1022C00040E00E94AA0B80E090E0A0E0B0E48DAB7B
:1022D0009EABAFABB8AF6DA97EA98FA998AD20E03A
:1022E00030E04AEF54E40E941F02DC01CB0189ABCD
:1022F0009AABABABBCAB69A97AA98BA99CA920E02E
:1023000030E040E85FE30E94250488232CF481E05C
:1023100090E098AB8FA73FC069A97AA98BA99CA927
:1023200020E03FEF4FE757E40E94C50318164CF535
:102330006DA97EA98FA998AD20E030E040E251E47C
:102340000E941F02DC01CB01BC01CD010E944900AB
:10235000DC01CB0198AB8FA70FC088EC90E09EA763
:102360008DA78DA59EA50197F1F79EA78DA78FA597
:1023700098A9019798AB8FA78FA598A9009769F79F
:1023800014C069A97AA98BA99CA90E944900DC0103
:10239000CB0198AB8FA78FA598A99CA78BA78BA5DE
:1023A0009CA50197F1F79CA78BA783E062E041E031
:1023B0000E94AA0B83E063E041E00E94AA0B83E045
:1023C00064E040E00E94AA0B83E065E041E00E94E7
:1023D000AA0B80E090E0A0E0B0E48FA398A7A9A7A3
:1023E000BAA76FA178A589A59AA520E030E04AEFA9
:1023F00054E40E941F02DC01CB018BA39CA3ADA37C
:10240000BEA36BA17CA18DA19EA120E030E040E89D
:102410005FE30E94250488232CF481E090E09AA3D6
:1024200089A33FC06BA17CA18DA19EA120E03FEFBD
:102430004FE757E40E94C50318164CF56FA178A525
:1024400089A59AA520E030E040E251E40E941F02F5
:10245000DC01CB01BC01CD010E944900DC01CB01B4
:102460009AA389A30FC088EC90E098A38F8F8F8DDB
:1024700098A10197F1F798A38F8F89A19AA101974D
:102480009AA389A389A19AA1009769F714C06BA1A7
:102490007CA18DA19EA10E944900DC01CB019AA3E1
:1024A00089A389A19AA19E8F8D8F8D8D9E8D019775
:1024B000F1F79E8F8D8F83E062E041E00E94AA0BCE
:1024C00083E063E040E00E94AA0B83E064E041E027
:1024D0000E94AA0B83E065E041E00E94AA0B80E025
:1024E00090E0A0E0B0E4898F9A8FAB8FBC8F698DAC
:1024F0007A8D8B8D9C8D20E030E04AEF54E40E9471
:102500001F02DC01CB018D8B9E8BAF8BB88F6D8949
:102510007E898F89988D20E030E040E85FE30E945B
:10252000250488232CF481E090E09C8B8B8B3FC0AA
:102530006D897E898F89988D20E03FEF4FE757E4C2
:102540000E94C50318164CF5698D7A8D8B8D9C8D74
:1025500020E030E040E251E40E941F02DC01CB01A8
:10256000BC01CD010E944900DC01CB019C8B8B8B0F
:102570000FC088EC90E09A8B898B89899A890197A2
:10258000F1F79A8B898B8B899C8901979C8B8B8B1C
:102590008B899C89009769F714C06D897E898F8922
:1025A000988D0E944900DC01CB019C8B8B8B8B8921
:1025B0009C89988B8F878F8598890197F1F7988BE5
:1025C0008F8783E062E040E00E94AA0B83E063E033
:1025D00041E00E94AA0B83E064E041E00E94AA0B64
:1025E00083E065E041E00E94AA0B80E090E0A0E07B
:1025F000B0E48B879C87AD87BE876B857C858D8596
:102600009E8520E030E04AEF54E40E941F02DC0186
:10261000CB018F839887A987BA876F817885898551
:102620009A8520E030E040E85FE30E94250488239B
:102630002CF481E090E09E838D833FC06F8178858C
:1026400089859A8520E03FEF4FE757E40E94C50354
:1026500018164CF56B857C858D859E8520E030E0D5
:1026600040E251E40E941F02DC01CB01BC01CD011C
:102670000E944900DC01CB019E838D830FC088EC52
:1026800090E09C838B838B819C810197F1F79C83E5
:102690008B838D819E8101979E838D838D819E8109
:1026A000009769F714C06F81788589859A850E94A3
:1026B0004900DC01CB019E838D838D819E819A83AD
:1026C000898389819A810197F1F79A83898389ADFA
:1026D0009AAD01979AAF89AF89AD9AAD009709F08D
:1026E000DECDEC960FB6F894DEBF0FBECDBFCF9116
:1026F000DF910895DF93CF93CDB7DEB783E062E03B
:1027000040E00E94AA0B83E063E040E00E94AA0B35
:1027100083E064E040E00E94AA0B83E065E040E0D3
:102720000E94AA0BCF91DF910895DF93CF93CDB78D
:10273000DEB761970FB6F894DEBF0FBECDBF0E9423
:10274000300E0E947C08198A0E9462148093010254
:1027500080910102882351F581E069E00E940A0915
:1027600080E690E00E94530838C081E00E9417077D
:1027700081E06BE00E940A0988E690E00E9453081D
:102780000E9462148093010280910102882319F44F
:1027900081E0888B0EC081E06BE00E940A0988E628
:1027A00090E00E94530889898F5F898B89898230E4
:1027B000E0F28889813049F081E06BE00E940A09EB
:1027C0008CE690E00E94530808C081E069E00E9416
:1027D0000A0980E690E00E94530880E090E0AAE7B2
:1027E000B4E48B879C87AD87BE876B857C858D85A0
:1027F0009E8520E030E04AEF54E40E941F02DC0195
:10280000CB018F839887A987BA876F81788589855F
:102810009A8520E030E040E85FE30E9425048823A9
:102820002CF481E090E09E838D833FC06F8178859A
:1028300089859A8520E03FEF4FE757E40E94C50362
:1028400018164CF56B857C858D859E8520E030E0E3
:1028500040E251E40E941F02DC01CB01BC01CD012A
:102860000E944900DC01CB019E838D830FC088EC60
:1028700090E09C838B838B819C810197F1F79C83F3
:102880008B838D819E8101979E838D838D819E8117
:10289000009769F714C06F81788589859A850E94B1
:1028A0004900DC01CB019E838D838D819E819A83BB
:1028B000898389819A810197F1F79A8389830E949C
:1028C000F91442CFDF93CF93CDB7DEB72E970FB673
:1028D000F894DEBF0FBECDBF1C8280E060E00E9496
:1028E0000A0982E790E00E94530881E060E00E94BC
:1028F0000A0986E790E00E94530880E063E00E94A6
:102900000A091CC00E94B80D8D838D818F3FD1F3C1
:102910008D81882F90E0A0E0B0E0BC01CD010E9445
:1029200069098C81282F30E0CE010796FC01E20F67
:10293000F31F8D8180838C818F5F8C838C818430A9
:1029400008F381E065E00E940A091B821CC00E9416
:10295000B80D8D838D818F3FD1F38D81882F90E0CD
:10296000A0E0B0E0BC01CD010E9469098B81282F55
:1029700030E0CE010B96FC01E20FF31F8D818083C6
:102980008B818F5F8B838B81843008F319821DC00C
:102990008981282F30E0CE010796FC01E20FF31F5A
:1029A00040818981282F30E083E090E0BC01621BE8
:1029B000730B9B01CE010B96FC01E20FF31F80818C
:1029C000481731F489818F5F89838981843000F3CE
:1029D0008981843011F41E8202C081E08E838E8151
:1029E0002E960FB6F894DEBF0FBECDBFCF91DF910C
:1029F0000895DF93CF93CDB7DEB72F970FB6F89436
:102A0000DEBF0FBECDBF80910102882309F0AFC0A9
:102A100081E00E94170780E065E00E940A098CE7C8
:102A200090E00E94530881E062E00E940A0984E875
:102A300090E00E94530880E090ECAAE5B5E48B8713
:102A40009C87AD87BE876B857C858D859E8520E0C4
:102A500030E04AEF54E40E941F02DC01CB018F8377
:102A60009887A987BA876F81788589859A8520E0BC
:102A700030E040E85FE30E94250488232CF481E0E5
:102A800090E09E838D833FC06F81788589859A858C
:102A900020E03FEF4FE757E40E94C50318164CF5BE
:102AA0006B857C858D859E8520E030E040E251E499
:102AB0000E941F02DC01CB01BC01CD010E94490034
:102AC000DC01CB019E838D830FC088EC90E09C835A
:102AD0008B838B819C810197F1F79C838B838D8104
:102AE0009E8101979E838D838D819E81009769F7DA
:102AF00014C06F81788589859A850E944900DC0120
:102B0000CB019E838D838D819E819A838983898168
:102B10009A810197F1F79A83898380E060E00E94AF
:102B20000A0980E990E00E94530881E060E00E9479
:102B30000A0981EA90E00E9453080E94B80D8F872D
:102B40008F858F3FD1F38F85882F90E0813091055D
:102B500019F40E94C0150BC081E00E94170780E0A5
:102B600062E00E940A0982EB90E00E9453082F96CF
:102B70000FB6F894DEBF0FBECDBFCF91DF910895A1
:102B8000DF93CF93CDB7DEB761970FB6F894DEBF72
:102B90000FBECDBF81E00E94170780E060E00E9479
:102BA0000A098FEB90E00E94530881E060E00E94E8
:102BB0000A0983ED90E00E9453080E94B80D8F87A8
:102BC0008F858F3FD1F38F85282F30E0398B288B6D
:102BD000888999898130910531F028893989223095
:102BE000310521F006C00E941D0A83C00E942E0AF2
:102BF00080C081E00E94170780E062E00E940A091D
:102C000082EB90E00E94530880E090E0AAEFB4E4E9
:102C10008B879C87AD87BE876B857C858D859E85E0
:102C200020E030E04AEF54E40E941F02DC01CB01B7
:102C30008F839887A987BA876F81788589859A85D8
:102C400020E030E040E85FE30E94250488232CF474
:102C500081E090E09E838D833FC06F817885898578
:102C60009A8520E03FEF4FE757E40E94C50318160E
:102C70004CF56B857C858D859E8520E030E040E2BB
:102C800051E40E941F02DC01CB01BC01CD010E9476
:102C90004900DC01CB019E838D830FC088EC90E05E
:102CA0009C838B838B819C810197F1F79C838B8321
:102CB0008D819E8101979E838D838D819E8100975A
:102CC00069F714C06F81788589859A850E944900CB
:102CD000DC01CB019E838D838D819E819A838983C4
:102CE00089819A810197F1F79A83898381E00E9413
:102CF000170761960FB6F894DEBF0FBECDBFCF9118
:102D0000DF910895629FD001739FF001829FE00DD3
:102D1000F11D649FE00DF11D929FF00D839FF00D5A
:102D2000749FF00D659FF00D9927729FB00DE11D06
:102D3000F91F639FB00DE11DF91FBD01CF011124E3
:102D40000895A1E21A2EAA1BBB1BFD010DC0AA1FEC
:102D5000BB1FEE1FFF1FA217B307E407F50720F004
:102D6000A21BB30BE40BF50B661F771F881F991F7F
:102D70001A9469F760957095809590959B01AC01C8
:102D8000BD01CF0108952F923F924F925F926F92B3
:102D90007F928F929F92AF92BF92CF92DF92EF92EB
:102DA000FF920F931F93CF93DF93CDB7DEB7CA1B6C
:102DB000DB0B0FB6F894DEBF0FBECDBF09942A8897
:102DC000398848885F846E847D848C849B84AA843F
:102DD000B984C884DF80EE80FD800C811B81AA81CC
:102DE000B981CE0FD11D0FB6F894DEBF0FBECDBF97
:082DF000ED010895F894FFCFF6
:102DF800436F7272656374007472790057726F6EF4
:102E0800670049443A00506173733A0057656C6330
:102E18006F6D6500746F204D6F746F7220444200AF
:102E280043686F6F7365206F6E65204D6F746F72A6
:102E380000312E444320322E53545020332E535207
:102E4800560057726F6E672043686F69636500525A
:102E58006F746174696F6E20446972656374696F19
:102E68006E3A00312E43572020322E43435700003C
:102E78000000000000000000010202030303030435
:102E880004040404040404050505050505050505F1
:102E980005050505050505060606060606060606D1
:102EA80006060606060606060606060606060606BA
:102EB80006060606060606070707070707070707A1
:102EC800070707070707070707070707070707078A
:102ED800070707070707070707070707070707077A
:102EE800070707070707070707070707070707076A
:102EF8000707070707070708080808080808080851
:102F08000808080808080808080808080808080839
:102F18000808080808080808080808080808080829
:102F28000808080808080808080808080808080819
:102F38000808080808080808080808080808080809
:102F480008080808080808080808080808080808F9
:102F580008080808080808080808080808080808E9
:102F680008080808080808080808080808080808D9
:102F780008080808080808030201000405060700F5
:102F88000102030405060708090A0B0C0D0E0F00C1
:00000001FF
